:020000040800F2
:1000000058050020010100084F1D00084D1A000886
:100010004D1D0008A1010008192300080000000080
:10002000000000000000000000000000851D000826
:10003000A301000800000000751D0008871D0008CE
:100040001B010008711D00081B0100081B010008AE
:100050001B0100081B0100081B0100081B01000810
:100060001B0100081B0100081B0100081B01000800
:100070001B0100081B0100081B0100081B010008F0
:100080001B0100081B010008490100081B010008B2
:100090001B0100081B0100081B0100081B010008D0
:1000A0001B0100081B0100081B0100081B010008C0
:1000B000591E00081B0100081B0100081B01000855
:1000C0001B0100081B0100081B0100081B010008A0
:1000D000791D0008F92200081B0100080D23000803
:1000E0001B0100081B0100081B010008DFF80CD0F1
:1000F00000F018F800480047B52300085805002014
:100100000648804706480047FEE7FEE7FEE7FEE7B1
:10011000FEE7FEE7FEE7FEE7FEE7FEE7111E00084A
:10012000ED000008064C074D06E0E06840F00103D2
:1001300094E8070098471034AC42F6D3FFF7DAFF93
:100140007024000890240008014800F0E2B8000084
:100150001000002070B5044600688168C943C907D3
:100160001CD1816821F00101816000F0F9FA054697
:100170000FE000BF00F0F4FA401B022809D9A06A82
:1001800040F01000A062E06A40F00100E06201204F
:1001900070BD20688068C043C007EBD0002070BDF0
:1001A000FEE7704770470000F8B50025009590F80D
:1001B0002420AE46012A1ED0012280F824204A685D
:1001C0001F244FF47873072A17D20668776B93FAC7
:1001D000A3FCBCFA8CFC521E02FB0CFC04FA0CF4CF
:1001E000A74393FAA3F3B3FA83F30C685A439440FA
:1001F000274377632DE00220F8BD06680D2A14D24C
:10020000376B93FAA3FCBCFA8CFCD21F02FB0CFCEC
:1002100004FA0CF4A74393FAA3F3B3FA83F30C683C
:100220005A4394402743376313E0F76A93FAA3FCD9
:10023000BCFA8CFC0D3A02FB0CFC04FA0CF4A7434C
:1002400093FAA3F3B3FA83F30C685A439440274319
:10025000F7620A683823072406680A2A14D3F76865
:1002600093FAA3FCBCFA8CFC0A3A02FB0CFC04FADD
:100270000CF4A74393FAA3F3B3FA83F38C685A43BD
:1002800094402743F76012E0376993FAA3FCBCFA65
:100290008CFC02FB0CFC04FA0CF4A74393FAA3F3C6
:1002A000B3FA83F38C685A439440274337610A6852
:1002B000102A01D0112A20D1124B02689A4217D17C
:1002C00093681B0219D4936843F400039360096890
:1002D000102912D10C490D4A0968B1FBF2F101EB6A
:1002E0008101490000E0491E00910029FBD104E092
:1002F000816A41F020018162012580F824E02846CE
:10030000F8BD0000002401400000002040420F0022
:10031000704710B5044600684168890626D5016813
:10032000890723D5A16AC90603D4A16A41F40071E3
:10033000A1628168C1F34241072910D1E16871B916
:10034000416821F020014160A06A20F48070A06221
:10035000A06AC00403D4A06A40F00100A062204655
:10036000FFF7D6FF21686FF012000860206841682F
:1003700009062ED5016849072BD5A16AC90603D401
:10038000A16A41F40051A1628168C1F302310729D9
:1003900009D04168490515D48168C1F34241072954
:1003A00010D1E16871B9416821F080014160A06A13
:1003B00020F48050A062A06AC00503D4A06A40F077
:1003C0000100A0622046FFF7EDFE21686FF00C00EF
:1003D00008602068416849060DD50068C0070AD04A
:1003E000A06A40F48030A062204600F09FF82168A7
:1003F0006FF00100086010BD2DE9F04104004FF0DE
:10040000000514D0A06A002628B9E66284F82460AA
:10041000204600F08DF82046FFF79CFEA16A01F00F
:100420001001014304D0A06A40F01000A06277E000
:10043000A16A21F4885141F00201A1626268E16978
:1004400002270A43E16897FAA7F70B46B7FA87F73E
:10045000B9400A43A1684FF48077B94208D0012916
:1004600006D00021D4F814C0BCF1010F02D00AE07C
:100470003946F7E7F3B1A36A43F02003A362E36AC6
:1004800043F00103E3622368D3F804C02CF4694C01
:100490004CEA010CC3F804C021688B68DFF884C003
:1004A00003EA0C0313438B60A168B94210D0012901
:1004B0000ED016E04FF4604CA3699CFAACFCBCFA79
:1004C0008CFC5B1E03FA0CF30B4343F40061DAE788
:1004D0004FF47001256991FAA1F1B1FA81F16D1E15
:1004E0008D402168CB6A23F470032B43CB622168D3
:1004F00089680D4B1940914208D1E662A16A21F04A
:10050000020141F00101A162BDE8F081A06A20F082
:10051000020040F01000A062E06A40F00100E062DA
:100520000120F1E7FDF7E1FFFE0E1FFF704700001D
:1005300000B500680F4985B0884218D10E4881691E
:1005400041F4007181618069694600F40070049093
:100550000120009003200190084800F01DF80022BF
:100560001146122000F082F9122000F073F905B054
:1005700000BD00000024014000100240000C0140BA
:1005800031B500F0EDF8044600F0EAF80099001BE0
:100590008842F9D338BD00002DE9F84FDFF890A16B
:1005A00000220AF1040B144601274FF00F090BF14A
:1005B000040E00BF0B6807FA04F52B40AB4274D160
:1005C000DFF870C14E68A6EB0C0866452BD00DDC39
:1005D000032E34D005DC36B3012E19D0022E2FD1D4
:1005E0001BE0112E16D0122E2AD119E0B8F5881F63
:1005F00019D006DCB8F5803F15D0B8F5801F1FD1A3
:1006000011E0B8F5001F0ED0B8F5041F18D10AE0AC
:10061000CA6815E0CA68121D12E0CA6808320FE005
:10062000CA680C320CE08A682AB1012A4FF008022D
:1006300003D0456104E0042202E0056100E00022ED
:10064000FF2B01D8064601E000F104064FEA8405BD
:1006500001D9A5F12005D6F800C009FA05F82CEA61
:10066000080C02FA05F54CEA050CC6F800C04D6806
:10067000ED0057D5304DAE6946F00106AE61AD696B
:1006800024F0030605F0010500952C4D06EB050C42
:10069000DCF80850A6074FEA167809FA08F6B543C1
:1006A000274EB04202D1002610E03BE0254EB0427A
:1006B00001D101260AE0244EB04201D1022605E014
:1006C000224EB04201D1032600E0042606FA08F6C5
:1006D0002E43CCF808604D68DAF80060ED0355460B
:1006E00001D51E4300E09E432E604D68DBF800609C
:1006F000AD035D4601D51E4300E09E432E604D686C
:10070000DEF80060ED02754601D51E4300E09E4311
:100710002E604D68AD020E4D2E6801D51E4300E0DF
:100720009E432E60641C102CFFF444AFBDE8F88F8C
:1007300000040140000011100010024000000140C0
:1007400000080140000C014000100140001401406D
:100750000C0401400AB1016170470904FBE7000085
:1007600001480068704700000C0000200248016842
:10077000491C0160704700000C000020074810B5BC
:10078000016841F010010160032000F08FF80020A3
:1007900000F006F800F016F8002010BD002002401E
:1007A00010B5044600F0FEF94FF47A71B0FBF1F099
:1007B00000F011FE00222146501E00F057F80020E4
:1007C00010BD0000214808B5816941F00101816137
:1007D000806900F001000090032000F067F800221B
:1007E00011466FF00B0000F041F8002211466FF047
:1007F0000A0000F03BF8002211466FF0090000F0FB
:1008000035F800221146501F00F030F80022114642
:10081000101F00F02BF800221146901E00F026F861
:1008200000221146501E00F021F80022114601203E
:1008300000F01CF8012000F00DF80548416821F097
:10084000E06141F00071416008BD0000001002400D
:100850000000014000F01F0201219140400980008A
:1008600000F1E020C0F8001170470000F0B40E4B1A
:100870001B680C46C3F30223C3F10705042D00D9FE
:100880000425191D072901D2002300E0DB1E0126E3
:1008900006FA05F1491E214099409E40761E1640F9
:1008A0003143F0BC01F054BA0CED00E0064900F011
:1008B000070208684FF6FF03184040EA0220034A87
:1008C00010430860704700000CED00E00000FA05DE
:1008D0007047000010B5054C2068C00304D5FFF731
:1008E000F7FF4FF48030206010BD00001404014079
:1008F0002DE9F84305460078454CC00774D0E069FF
:1009000040F08050E061E069424E00F0805000907D
:10091000306840F480703060FFF722FF074604E043
:10092000FFF71EFFC01B642833D83068C005F7D519
:10093000206A10F4407051D0A98801F440718142BE
:100940004CD0206A0126310491FAA1F2B2FA82F267
:100950009300314A20F440701344C3F8006491FAC4
:10096000A1F1B1FA81F102EB81010023C1F8003459
:100970002062C00732D0FFF7F3FE074641F2883904
:100980004FF0020808E000BFFFF7EAFEC11B49452F
:1009900002D90320BDE8F88398FAA8F1B1FA81F1F1
:1009A00041F040014046B6EB511F01D121680BE0F8
:1009B00090FAA0F1B1FA81F141F04001B0EB511F82
:1009C00001D1216A00E0616A98FAA8F0B0FA80F0DB
:1009D00000F01F0206FA02F00142D5D0206A6968D1
:1009E00020F44070084320622878800705D56068AD
:1009F000A96820F44040084360602878C00605D507
:100A00006068E96820F48000084360600020C1E766
:100A10000010024000700040000042422DE9F04703
:100A2000DFF8708105460E46D8F8000000F0070098
:100A3000B0420CD2D8F8001021F007013143C8F8B9
:100A40000010D8F8000000F00700B04277D12878F5
:100A5000514C800705D56068A96820F0F000084374
:100A600060602878C00759D06968012001290DD03D
:100A7000022929D05FF0020393FAA3F2B2FA82F2BC
:100A800042F02002520904D0226803E04FF4003300
:100A9000F2E7626A93FAA3F3B3FA83F303F01F0356
:100AA000984002424BD0606820F003000843606029
:100AB000FFF756FE6968074641F2883001290DD0DC
:100AC0000229814617D025E04FF00073D4E700BF1C
:100AD000FFF746FEC11B494501D918E08146606811
:100AE000C0F381000128F3D118E000BFFFF738FE02
:100AF000C11B49450BD86068C0F381000228F5D1BD
:100B00000CE000BFFFF72CFEC11B494502D90320B2
:100B1000BDE8F087606810F00C0FF3D1D8F8001032
:100B2000404601F00701B1420BD9016821F00701ED
:100B300031430160006800F00700B04201D001209D
:100B4000E6E72878400705D56068E96820F4E060AA
:100B5000084360602878000706D56068296920F49A
:100B6000605040EAC100606000F052F86168F02215
:100B700092FAA2F201F0F001B2FA82F2D140074AF1
:100B8000515CC840064908600020FFF709FE0020BC
:100B9000BEE7000000200240001002405824000878
:100BA000000000200148006870470000000000209D
:100BB00008480949006849684FF4E06292FAA2F2D5
:100BC00001F4E061B2FA82F2D140044A515CC840BB
:100BD0007047000000000020001002406824000858
:100BE00008480949006849684FF4605292FAA2F235
:100BF00001F46051B2FA82F2D140044A515CC8401B
:100C00007047000000000020001002406824000827
:100C100010B519A385B00FCB8DE80F001AA01B4BA0
:100C2000006804905A681A4802F00C0104291DD08B
:100C300008291BD14FF4701494FAA4F402F4701133
:100C4000B4FA84F4E140D2031DF8011010D55A68BB
:100C50004FF4003393FAA3F302F40032B3FA83F3B0
:100C6000DA4004AB9A5CB0FBF2F0484305B010BD2B
:100C700008484843FAE7000002030405060708098C
:100C80000A0B0C0D0E0F10100102000000100240A4
:100C900000127A0000093D002DE9F84F0446007863
:100CA000F74DC0074FF0010625D068687704C0F300
:100CB0008100012807D06868C0F3810002281BD199
:100CC0006868C00318D597FAA7F0B0FA80F040F032
:100CD0002000400901D0286800E0686A97FAA7F16F
:100CE000B1FA81F101F01F0106FA01F108425ED06C
:100CF000606800287CD05AE06068B0F5803F0BD077
:100D000010B1B0F5A02F11D0286820F480302860F1
:100D1000286820F4802002E0286840F480302860B1
:100D2000606828B3FFF71CFD80460BE0286840F49C
:100D300080202860F0E700BFFFF712FDA0EB08005D
:100D4000642871D897FAA7F0B0FA80F040F020003C
:100D5000400901D0286800E0686A97FAA7F1B1FA63
:100D600081F101F01F0106FA01F10842E4D01EE012
:100D7000FFF7F6FC804605E0FFF7F2FCA0EB080069
:100D80006428DED897FAA7F0B0FA80F040F020008F
:100D9000400901D0286800E0686A97FAA7F1B1FA23
:100DA00081F101F01F0106FA01F10842E4D1207837
:100DB000DFF8D08280074FF000094FF002075BD5C3
:100DC00068684FF0F80B10F00C0F07D06868C0F39C
:100DD000810002281CD16868C00319D497FAA7F0D3
:100DE000B0FA80F040F02000400902D0286801E00D
:100DF0008BE0686A97FAA7F1B1FA81F101F01F015F
:100E000006FA01F108422CD0206901287DD128E0A2
:100E1000206990B396FAA6F0B0FA80F048F8206006
:100E2000FFF79EFC824607E011E100BFFFF798FC48
:100E3000A0EB0A00022884D897FAA7F0B0FA80F055
:100E400040F02000400901D0286800E0686A97FA65
:100E5000A7F1B1FA81F101F01F0106FA01F1084290
:100E6000E4D028689BFAABF26169B2FA82F220F012
:100E7000F80091400843286025E0FFE796FAA6F1C4
:100E8000B1FA81F148F82190FFF76AFC824605E04B
:100E9000FFF766FCA0EB0A000228CCD897FAA7F06F
:100EA000B0FA80F040F02000400901D0286800E04E
:100EB000686A97FAA7F1B1FA81F101F01F0106FA09
:100EC00001F10842E4D1207800076ED5A069B8B3DB
:100ED00096FAA6F0B0FA80F008EB8000C0F88064C3
:100EE000FFF73EFC824605E0FFF73AFCA0EB0A0064
:100EF0000228A0D897FAA7F0B0FA80F040F060007E
:100F0000B6EB501F02D128680CE062E197FAA7F017
:100F1000B0FA80F040F06000B7EB501F01D1286AB2
:100F200000E0686A97FAA7F1B1FA81F101F01F01B8
:100F300006FA01F21042D7D00120FFF721FB34E07E
:100F4000FFE796FAA6F1B1FA81F108EB8101C1F849
:100F50008094FFF705FC824606E000BFFFF700FC27
:100F6000A0EB0A00022872D897FAA7F0B0FA80F036
:100F700040F06000B6EB501F01D128680BE097FAF3
:100F8000A7F0B0FA80F040F06000B7EB501F01D13D
:100F9000286A00E0686A97FAA7F1B1FA81F101F0D6
:100FA0001F0106FA01F21042D8D12078400765D51A
:100FB000E86940F08050E861E869DFF8CCB000F003
:100FC00080500090DBF8001041F48071CBF80010E5
:100FD000FFF7C6FB824605E0FFF7C2FBA0EB0A0065
:100FE000642834D8DBF80000C005F5D5E068012896
:100FF0000AD008B1052813D0286A20F00100286221
:10100000286A20F0040002E0286A40F0010028620B
:10101000E06841F2883B90B3FFF7A2FB82460BE009
:10102000286A40F004002862EEE700BFFFF798FB53
:10103000A0EB0A0159450AD897FAA7F0B0FA80F058
:1010400040F04000B6EB501F02D128680CE0A3E04E
:1010500097FAA7F0B0FA80F040F04000B7EB501FCD
:1010600001D1286A00E0686A97FAA7F1B1FA81F124
:1010700001F01F0206FA02F10842D7D031E005E084
:10108000001002400000424200700040FFF768FB81
:10109000824605E0FFF764FBA0EB0A0159457BD8C7
:1010A00097FAA7F0B0FA80F040F04000B6EB501F7E
:1010B00001D128680BE097FAA7F0B0FA80F040F071
:1010C0004000B7EB501F01D1286A00E0686A97FA28
:1010D000A7F1B1FA81F101F01F0206FA02F108420C
:1010E000D8D1E06980B36968C1F38101022970D069
:1010F0004FF080714F000228484609D091FAA1F1C3
:10110000B1FA81F148F82100FFF72AFB044669E0B3
:101110008A4691FAA1F1B1FA81F1C14648F821005D
:10112000FFF71EFB804605E0FFF71AFBA0EB080067
:10113000022854D897FAA7F0B0FA80F040F02000C7
:10114000400902D0286801E061E0686A97FAA7F1D7
:10115000B1FA81F101F01F0106FA01F10842E3D171
:10116000206AB0F5803F05D16868A16820F400309E
:1011700008436860D4E908010843696821F47411E0
:10118000084368609AFAAAF0B0FA80F049F8206043
:10119000FFF7E6FA044606E021E000BFFFF7E0FAB9
:1011A000001B02281BD897FAA7F0B0FA80F040F095
:1011B0002000400901D0286800E0686A97FAA7F18A
:1011C000B1FA81F101F01F0106FA01F10842E5D000
:1011D0001DE01EE0FFF7C4FA001B022802D903201D
:1011E000BDE8F88F97FAA7F0B0FA80F040F0200041
:1011F000400901D0286800E0686A97FAA7F1B1FABF
:1012000081F101F01F0106FA01F10842E2D100204C
:10121000E6E70120E4E7704708B501684A68D24371
:10122000520609D48A68D243D20705D18A68D243CC
:10123000520601D5816C08E04A68D243120608D4F0
:101240008A68D243920704D4C16C01B05DF804EB04
:1012500008474A68D243920635D48A68D243D206F8
:1012600006D4426D42F0020242656FF010028A60BD
:1012700001688A68D243920609D4426D42F00102A5
:1012800042658A680A6822F040020A60009201689A
:101290008A68D24352060AD490F85120122A06D006
:1012A000426D42F004024265CA688A680092426D4B
:1012B000002A08D04A6822F0E0024A60012180F842
:1012C0005110FFF7A8FF08BD10B5040003D094F833
:1012D000510010B104E0012010BD204600F038F8A4
:1012E000022084F851002068016821F0400101606B
:1012F000D4E901010843D4E90312114308436169A9
:101300000843218B01F400710843E1690843216A15
:101310000843A16A084321680860A069042101EA22
:101320001040616A0843216848602168E06A0861EA
:101330002068C16921F40061C1610449002008707E
:101340006065012084F85100002010BD08000020D5
:1013500010B50068164986B0884226D11548C16983
:1013600041F48041C161C069134C00F48040049095
:101370004FF4204000900220019003200390694622
:101380002046FFF709F900214FF48040CDE9000124
:10139000029169462046FFF7FFF8002211462420FB
:1013A000FFF764FA2420FFF755FA06B010BD0000DD
:1013B0000038004000100240000C01404FF0E021D6
:1013C0000428086903D020F004000861704740F049
:1013D0000400FAE7704710B5401EB0F1807F01D3DA
:1013E000012010BD4FF0E02460610F21601700F074
:1013F000AFFC0020A06107202061002010BD10B5C7
:10140000FFF7E8FF10BD7047704730B590F83820FF
:10141000012A20D0012280F83820022380F83930B8
:1014200003685C6824F070045C6003685C680D68A5
:101430002C435C6003689C6824F080049C60036813
:101440009C6849680C439C6080F83920002180F832
:101450003810084630BD022030BD10B5040003D05E
:1014600094F8390010B107E0012010BD002084F885
:101470003800204600F00CF8022084F83900211DC5
:10148000206800F0EFFC012084F83900002010BD36
:1014900008B50068B0F1804F12D10A48C16941F027
:1014A0000101C161C069002200F0010000901146F5
:1014B0001C20FFF7DBF9BDE808401C20FFF7CAB984
:1014C00008BD00000010024070B5044690F83800D6
:1014D000012817D0012584F83850022084F83900FB
:1014E0002068826822F0770222F47F4282600868D6
:1014F000502837D00DDC202859D005DC88B31028BF
:1015000041D151E0022070BD302853D040283AD15B
:101510003FE060282ED070280BD0B0F5805F03D05C
:10152000B0F5005F2FD110E02068816821F007013D
:1015300015E0CB68D1E90121206800F0C5FC2168E5
:10154000886840F0770088601DE0CB68D1E9012110
:10155000206800F0B9FC2068816841F48041816016
:1015600011E01EE0CA684968206800F061FD502162
:10157000206806E0CA684968206800F06AFD6021BA
:10158000206800F0ABFC84F83950002084F8380063
:1015900070BDCA684968206800F04AFD4021206893
:1015A000EFE700212068ECE710212068E9E720211F
:1015B0002068E6E730212068E3E7704770B504460D
:1015C000006801694FF00005C943890715D4C16857
:1015D000C943890711D4E91E0161012020762068E2
:1015E00080698007204602D0FFF7E7FF04E000F0A3
:1015F000ABF8204600F02DF9257620680169C94333
:10160000490717D4C168C943490713D46FF00401CF
:101610000161022020762068806910F4407F204616
:1016200002D0FFF7CAFF04E000F08EF8204600F079
:1016300010F9257620680169C943090716D4C168E5
:10164000C943090712D46FF0080101610420207614
:101650002068C0698007204602D0FFF7AEFF04E093
:1016600000F072F8204600F0F4F825762068016951
:10167000C943C90617D4C168C943C90613D46FF05A
:1016800010010161082020762068C06910F4407FB5
:10169000204602D0FFF791FF04E000F055F8204605
:1016A00000F0D7F8257620680169C943C90708D139
:1016B000C168C943C90704D1891E0161204600F0F1
:1016C000C9F820680169C943090609D4C168C9433A
:1016D000090605D46FF0800101612046FFF793FEF3
:1016E00020680169C943490609D4C168C94349064C
:1016F00005D46FF040010161204600F0ACF820688D
:101700000169C94389060BD4C168C943890607D456
:101710006FF0200101612046BDE87040FFF774BE04
:1017200070BD00001FB50068B0F1804F08D10F20D8
:10173000009002200190039069460248FEF72CFFBA
:101740001FBD000000080140704770B5044690F8C6
:1017500038000D4601280DD0012684F8386002209B
:1017600084F8390042B1042A18D0082A2AD00C2A59
:101770004DD139E0022070BD206800F0B7FB206831
:10178000816941F0080181612068816921F00401CB
:101790008161206881692A69114311E0206800F0A5
:1017A000CDFB2068816941F4006181612068816915
:1017B00021F480618161206881692A6941EA0221FE
:1017C000816124E0206800F0E5FB2068C16941F0F8
:1017D0000801C1612068C16921F00401C16120686C
:1017E000C1692A69114311E0206800F0FFFB2068FD
:1017F000C16941F40061C1612068C16921F480615F
:10180000C1612068C1692A6941EA0221C16184F885
:101810003960002084F8380070BD10B5040003D092
:1018200094F8390010B107E0012010BD002084F8C1
:101830003800204600F00CF8022084F83900211D01
:10184000206800F00FFB012084F83900002010BD53
:1018500070477047704770477047000038B50446BE
:1018600000680168C26811F0010F02F4807204D0B0
:101870001AB1E16B41F00101E1630168C1F340027B
:10188000416901F0010122B119B1E26B42F0040299
:10189000E2630268C2F3800222B119B1E26B42F046
:1018A0000202E2630268C2F3C00222B119B1E16B25
:1018B00041F00801E1630168C068C1F3401100F024
:1018C000200019B110B1204600F0D6FB2068016855
:1018D000C068C1F3C01100F0800019B110B12046FA
:1018E00000F0D6FC21680868CA68C0F3801002F0D6
:1018F0004002012570B16AB1CA68204622F0400258
:10190000CA6094F83910322911D080F8395000BFDC
:1019100000F09BF8E06B002808D020680168406860
:10192000009084F839502046FFF796FF38BD2221F9
:1019300080F83910ECE770B5040004D094F8390051
:10194000002510B106E0012070BD84F83850204613
:1019500000F020F8022084F839002068C16821F4E2
:101960000051C160204600F0DBFB2068016921F4D2
:10197000904101612068416921F02A01416120689C
:10198000C16841F40051C160E563012084F8390069
:10199000002070BD70B503682748264E0024022140
:1019A0000322051586B0B3421ED1836943F48043F8
:1019B00083618069214E00F4804004900802CDE9E3
:1019C0000001039269463046FEF7E6FDCDE900547A
:1019D000694630460294FEF7DFFD002211462520BD
:1019E000FEF744FF252020E0154EB3421FD1C36906
:1019F00043F48023C361C069CDE9005100F4802025
:101A0000CDE903200F4D69462846FEF7C5FDE814D1
:101A1000CDE90004694628460294FEF7BDFD002288
:101A200011462720FEF722FF2720FEF713FF06B0FE
:101A300070BD000000380140001002400008014065
:101A400000480040000C014070477047FEE700006E
:101A50001FB54FF4C0500124CDE9000403200390CA
:101A600069460448FEF798FD0348C0F8B041C0F845
:101A7000AC411FBD00080140000021422DE9F041AA
:101A800006461448016821F470410160016841F480
:101A900080510160104C0027C4F8B0713D464FF0F2
:101AA0000108F009C4F8AC017006060E022000F02F
:101AB0006DFCC4F8B081022000F068FCC4F8B0717D
:101AC000022000F063FC6D1CEDB2082DE9D3BDE8E7
:101AD000F081000004080140000021420C4810B5CC
:101AE000016821F470410160016841F48051016096
:101AF000084C0120C4F8AC01C4F8B001042004F57E
:101B0000D67400F043FC00202060606010BD00002F
:101B100004080140000021420C4810B5016821F47E
:101B200070410160016841F480510160084C00205F
:101B3000C4F8B001C4F8AC01042004F5D67400F078
:101B400025FC01206060206010BD000004080140F9
:101B5000000021423EB50F4800240D498460C46056
:101B600044610160012505614FF460214460C16159
:101B7000FEF742FC00B1FEE70820CDE9000569460A
:101B800002940448FEF710FB002800D0FEE73EBD9B
:101B900000240140100000202DE9F043314885B0B9
:101BA000816941F020018161816901F02001049186
:101BB000816941F004018161816901F004010491AE
:101BC000816941F0080181618069DFF89C9000F033
:101BD000080004900122C0214846FEF7BBFDDFF853
:101BE0008C80002241F202014046FEF7B3FD4FF423
:101BF000C057002239464846FEF7ACFD012260215D
:101C00004046FEF7A7FDC0200124CDE900040225CF
:101C1000694603954846FEF7BFFC6220CDE9000403
:101C2000694603954046FEF7B7FC2003CDE9000462
:101C30000326694603964046FEF7AEFC4FF401408A
:101C400000900020CDE9010569464846FEF7A4FC56
:101C5000CDE90074694648460396FEF79DFC05B041
:101C6000BDE8F0830010024000080140000C014074
:101C70000E4810B50C4901604FF48271416000219B
:101C80008160C1604FF400720161C0E90512C16159
:101C90000162416281620A21C162FFF715FB0028DF
:101CA00000D0FEE710BD00000038004040000020DA
:101CB00010B525488EB04FF080410024C0E90014D3
:101CC0008460C4600461FFF7C8FB00B1FEE74FF415
:101CD0008050079007A91C48FFF7F6FB00B1FEE70C
:101CE0001948FFF79AFD00B1FEE70B940BA91648BF
:101CF0000C94FFF78AFB00B1FEE76020CDE90004F9
:101D000002940022694610480494FFF71EFD00B1BA
:101D1000FEE7042269460C48FFF717FD00B1FEE715
:101D2000082269460848FFF710FD00B1FEE70C22C3
:101D300069460548FFF709FD00B1FEE70248FFF7D5
:101D4000F1FC0EB010BD000098000020FEE77047C7
:101D50000907090E002806DA00F00F0000F1E02064
:101D600080F8141D704700F1E02080F800147047DF
:101D7000FEF7B0BD704700000148FFF74DBA000004
:101D800040000020704710B5FEF7F0FCBDE81040A1
:101D9000FFF735BB30B593B001210804CDE9001041
:101DA0000025029502240491CDE907404FF4E0108C
:101DB00009906846FEF770FF00B1FEE70AA90F2000
:101DC00081E831004FF48060CDE90D0502210AA8B9
:101DD000FEF724FE00B1FEE74FF4004011900F948F
:101DE0000FA8FEF785FD00B1FEE7FEF7DBFE4FF41E
:101DF0007A71B0FBF1F0FFF7EEFA0420FFF7DEFA9C
:101E000000221146501EFEF731FD13B030BD000018
:101E10000D48016841F00101016041680B4A114021
:101E2000416001680A4A11400160016821F4802183
:101E30000160416821F4FE0141604FF41F0181609F
:101E40000449C00308607047001002400000FFF81A
:101E5000FFFFF6FE08ED00E00148FFF7AFBB000012
:101E600098000020F0B50268144B154C154D4FF04A
:101E70008047984205D0B84203D0A04201D0A84282
:101E800003D122F070064A683243984205D0B84226
:101E900003D0A04201D0A84203D122F44074CA6802
:101EA000224302608A68C2620A688262984201D153
:101EB0000969016301214161F0BD0000002C01406E
:101EC000000400400008004010B5846842EA032284
:101ED00024F47F440A432243826010BD826822F0CA
:101EE00070020A4342F007018160704730B5026A10
:101EF00022F001020262026A4368846924F07305D9
:101F00000C682C4322F002058A682A430A4DA84235
:101F10000BD122F00805CA6823F440732A434D69A7
:101F200022F004021D438B692B434360846149689E
:101F30004163026230BD0000002C014030B5026AEE
:101F400022F010020262026A436884690D6824F478
:101F5000E64444EA05248D6822F0200242EA051294
:101F60000B4DA8420ED1CD6822F0800242EA051244
:101F70004D6923F4406343EA85038D6922F04002F2
:101F800043EA85034360846149688163026230BD2E
:101F9000002C014030B5026A22F480720262036AAA
:101FA0004268C46923F4007324F073050C682C4361
:101FB0008D6843EA05230C4DA8420ED1CD6823F469
:101FC000006343EA05234D6922F4405242EA0512B8
:101FD0008D6923F4806342EA05124260C461496856
:101FE000C163036230BD0000002C014030B5026ABD
:101FF00022F480520262046A4268C3690D6823F4C5
:10200000E64343EA05238D6824F4005444EA05348A
:10201000064DA84204D14D6922F4804242EA85125D
:102020004260C36149680164046230BD002C014014
:1020300010B5036A046A24F001040462846924F080
:10204000F00444EA021423F00A020A4384610262A3
:1020500010BD10B5036A23F0100303628369046A9C
:1020600023F4704343EA023224F0A00343EA01114F
:102070008261016210BD000010B590F8391022296C
:1020800003D0322901D0022010BD8168B1F5805FF4
:1020900011D00169002901681FD0496801F07F0350
:1020A000816A4A1C82620B70C18D491E0904090CA9
:1020B000C18518D030E00269816A002A026852683E
:1020C00005D0D2B20A80816A491C8162ECE7C2F372
:1020D00008020A80816A891CF7E74A68816A4B1CFA
:1020E00083620A70E0E70168CA6822F02002CA60D1
:1020F00090F83910322911D00168CA6822F4807230
:10210000CA6001684A6922F001024A615FF0010178
:1021100080F83910FFF798FC002010BD1221F7E776
:102120002DE9F041044600680169E26821F440515C
:10213000114301612169A06808436169084321686E
:10214000CA6841F20C639A430243CA60206841693D
:10215000A26921F44071114341614C492068642512
:10216000322688423CD1FEF73BFD00EBC00101EB7B
:10217000001061688900B0FBF1F7FEF731FD00EB5C
:10218000C00101EB00106168B0468900B0FBF1F0BE
:10219000B0FBF5F06FF01801484307EB800106EB48
:1021A0000110B0FBF5F000F0F006FEF719FD00EBB2
:1021B000C00101EB001061688900B0FBF1F0B0FBD9
:1021C000F5F006EB0016FEF70BFD00EBC00101EB8E
:1021D000001061688900B0FBF1F7FEF701FD3BE0FC
:1021E000FEF7E6FC00EBC00101EB0010616889001E
:1021F000B0FBF1F7FEF7DCFC00EBC00101EB0010D7
:102200006168B0468900B0FBF1F0B0FBF5F06FF00B
:102210001801484307EB800106EB0110B0FBF5F015
:1022200000F0F006FEF7C4FC00EBC00101EB00106B
:1022300061688900B0FBF1F0B0FBF5F006EB001629
:10224000FEF7B6FC00EBC00101EB001061688900ED
:10225000B0FBF1F7FEF7ACFC00EBC00101EB0010A6
:1022600061688900B0FBF1F0B0FBF5F06FF0180188
:10227000484307EB800108EB0110B0FBF5F0216843
:1022800000F00F0030448860BDE8F0810038014064
:1022900090F83910122903D0322901D0022070475A
:1022A0008168B1F5805F016A0BD04A1C0262026846
:1022B00009785160C18C491E0904090CC1840ED0F3
:1022C00017E009880268C1F308015160016900291B
:1022D000016A02D0491C0162ECE7891CFBE7016836
:1022E000CA6822F08002CA600068C16841F04001FB
:1022F000C16000207047000003480068800602D5D6
:102300000148001D00687047003801400148FFF790
:10231000A5BA000014010020FEE702E008C8121F61
:1023200008C1002AFAD170477047002001E001C1BE
:10233000121F002AFBD170474FF0E0210A6922F0FA
:1023400004020A610649C00800EB40020870C2EBB3
:10235000C0104FF6FF7202EAC000488070470000CC
:10236000040000200849498848434FF0E0214861B3
:102370000020886101220A610A69D30701D0D203D3
:10238000FAD508618861704704000020084909787F
:1023900048434FF0E02148610020886101220A6132
:1023A0000A69D30701D0D203FAD508618861704762
:1023B000040000204820FFF7BFFFFEF7DFF9FFF71A
:1023C000E9FCFFF7E9FBFFF7C5FBFFF771FC1E48CF
:1023D0001C494FF4E13500240160C0E901540C268A
:1023E000C460C0E904468461C461FFF7A4FA00B187
:1023F000FEE71548154940300160C0E90154C4604A
:10240000C0E904468461C461FFF795FA00B1FEE7B4
:10241000FFF72EFC002260210D48FEF79BF90022F9
:10242000C0210C48FEF796F9FFF712FBFFF756FBA9
:102430005520FFF723FBFFF76FFB0220FFF792FF0A
:10244000F4E7000000380140D400002000480040BC
:10245000000C0140000801400000000000000000E6
:10246000010203040607080900000000010203043A
:102470009024000800000020100000001A2300082B
:10248000A024000810000020480500002A230008AE
:1024900000A24A040000000000000000000000004C
:04000005080000ED02
:00000001FF
