:020000040800F2
:10000000E01500200DCF0008D1C90008D3C90008B1
:10001000D5C90008D7C90008D9C9000800000000E8
:10002000000000000000000000000000DBC9000824
:10003000DDC9000800000000DFC900088BCE000801
:1000400027CF0008E1C9000827CF000827CF000804
:1000500027CF000827CF000827CF000827CF0008A8
:1000600027CF000827CF000827CF000827CF000898
:1000700027CF000827CF000827CF000827CF000888
:1000800027CF000827CF0008E5C9000827CF0008C0
:1000900027CF000827CF000827CF000827CF000868
:1000A00027CF000827CF000827CF000827CF000858
:1000B000EBC9000827CF000827CF000827CF00088A
:1000C00027CF000827CF000827CF000827CF000838
:1000D000F1C900086DCC000827CF000883CC0008C8
:1000E00027CF000827CF000827CF000800F002F82C
:1000F00000F06DF80AA090E8000C82448344AAF155
:100100000107DA4501D100F062F8AFF2090EBAE852
:100110000F0013F0010F18BFFB1A43F0010318473B
:10012000740E0100940E01000A444FF0000C10F808
:10013000013B13F0070408BF10F8014B1D1108BF65
:1001400010F8015B641E05D010F8016B641E01F805
:10015000016BF9D113F0080F1EBF10F8014BAD1C55
:100160000C1B09D16D1E58BF01F801CBFAD505E073
:1001700014F8016B01F8016B6D1EF9D59142D6D3CD
:10018000704700000023002400250026103A28BFF5
:1001900078C1FBD8520728BF30C148BF0B607047F9
:1001A000662910F0F08464290CF0088778290CF097
:1001B0003F87002070471FB50DF0C8FB04000020EA
:1001C00000210FF07BFAE0601FBD10B510BD0DF0EF
:1001D000BBFC1146FFF7EFFF0AF0AEFF0DF0D9FCB4
:1001E00003B4FFF7F2FF03BC0DF01AFD704710B522
:1001F000044602F0C5FC4FF47A71B0FBF1F001F057
:100200003CFA00222146501E01F0F5F9002010BDF5
:10021000394810B5016841F010010160032001F078
:10022000DDF90020FFF7E3FF0CF05EFA002010BDBF
:100230007047324810B54FF0FF31C16000220261B3
:10024000C160C260FFF7F4FF002010BD2C480168B8
:10025000491C016070472A480068704731B5FFF7B4
:10026000FAFF0446FFF7F7FF0099001B8842F9D315
:1002700038BD4FF0E020016921F0020101617047B3
:100280004FF0E020016941F00201016170471D4813
:1002900070471D4800681D4991FAA1F1B1FA81F13A
:1002A000C840704718480068C0F30B0070471648F4
:1002B000416841F00101416070471348416821F0F5
:1002C0000101416070471048416841F002014160FE
:1002D00070470D48416821F00201416070470A48AB
:1002E000416841F00401416070470748416821F0CE
:1002F00004014160704700000020024000100240ED
:100300000000002000040001002004E00000FFFFC6
:1003100070B5044600688168C943C9071BD181686C
:1003200021F001018160FFF796FF05460EE0FFF71F
:1003300092FF401B022809D9A06A40F01000A06279
:10034000E06A40F00100E062012070BD2068806832
:10035000C043C007EBD0002070BD70472DE9F041CD
:1003600004004FF0000514D0A06A002628B9E66208
:1003700084F8246020460CF0FAF92046FFF7C8FF05
:10038000A16A01F01001014304D0A06A40F01000FE
:10039000A06277E0A16A21F4885141F00201A162D4
:1003A0006268E169E3680A43022191FAA1F1B1FAB6
:1003B00081F103FA01F10A43A1684FF48077B94251
:1003C00008D0012906D00021D4F814C0BCF1010FD7
:1003D00002D00AE03946F7E7F3B1A36A43F02003FD
:1003E000A362E36A43F00103E3622368D3F804C025
:1003F0002CF4694C4CEA010CC3F804C021688B68EA
:10040000DFF828C403EA0C0313438B60A168B942E8
:1004100010D001290ED016E04FF4604CA3699CFA6D
:10042000ACFCBCFA8CFC5B1E03FA0CF30B4343F4EC
:100430000061DAE74FF47001256991FAA1F1B1FA90
:1004400081F16D1E8D402168CB6A23F470032B432C
:10045000CB6221688968F64B1940914208D1E66267
:10046000A16A21F0020141F00101A162BDE8F08121
:10047000A06A20F0020040F01000A062E06A40F0A4
:100480000100E0620120F1E7704770B504000BD075
:10049000A06A40F00200A0622046FFF739FF050085
:1004A0004FF0000602D05AE0012070BD21686FF0C5
:1004B0001F00086020684168DE4A114041602068E2
:1004C0008168DD4A114081602068C16801F07F4188
:1004D000C1602068016901F0404101612068416903
:1004E0006FF30B014161206881696FF30B0181613A
:1004F0002068C1696FF30B01C1612068016A6FF365
:100500000B0101622068416A6FF30B0141622068B0
:10051000816A6FF30B0181622068C16A01F07F413B
:10052000C1622068C16A01F07F41C1622068016B2D
:1005300001F0404101632068416B01F0404141639B
:100540002068816B6FF3150181632068816B6FF305
:100550001501816320460CF02BF9E662A66284F84F
:100560002460284670BDF8B5002604460096006851
:100570008168C943C90727D0816841F001018160C2
:10058000AE48AF490068B0FBF1F000E0401E0090BB
:100590000028FBD1FFF75FFE054610E0FFF75BFE8A
:1005A000401B02280BD9A06A40F01000A062E06A4C
:1005B00040F00100E06284F824600120F8BD20686A
:1005C0008068C043C007E9D10020F8BD70B504467B
:1005D00090F8240001280DD0012084F82400204642
:1005E000FFF7C1FF01004FF0000205D084F824207E
:1005F000084670BD022070BDA06A40F201239843F6
:1006000040F48070A0628F4D20688F4BA84218D1B3
:100610001E6816F4702F14D0A66A46F48016A662DF
:100620001E68760505D5A66A26F4005646F480565F
:10063000A662A66AF6040AD5E66A26F00606E6620F
:1006400006E0A66A26F48016A6624668E9E7E2623A
:1006500084F824206FF00202026020688268C2F3EE
:100660004242072A05D1A84208D11A6812F4702F15
:1006700004D0826842F480128260B9E7826842F452
:10068000A002F9E710B5044690F82400012807D02D
:10069000012084F824002046FFF73AFE10B107E05D
:1006A000022010BDA16A21F4885141F00101A1622C
:1006B000002184F8241010BD2DE9F8434FF0000804
:1006C0000D460446CDF80080FFF7C5FD06462068BC
:1006D0008168C90508D5A06A40F02000A06284F8AE
:1006E00024800120BDE8F8834168C90503D4C06AAD
:1006F00010F4700F25D0022002F099FB4F490968D1
:10070000B1FBF0F720680169504A11424FEA6202DA
:100710004FEAA2131AD1C1684FEA621C11EA0C0F0A
:1007200014D10169114220D1C06818421DD1142092
:100730001EE0681C05D035B3FFF78DFD801BA84275
:1007400021D8206800688007F3D529E001691142AB
:1007500002D1C168194206D002693D490A4206D158
:10076000C068084203D1542002E0292000E0FC20A8
:100770004743009812E0681C0DD025B1FFF76BFDD0
:10078000801BA84207D9A06A40F00400A06284F848
:1007900024800320A6E70098401C0090B842EAD3CA
:1007A00021686FF012000860A06A40F40070A06237
:1007B00020688068C0F3424007280CD1E06850B937
:1007C000A06A20F48070A062A06AC00403D4A06A6A
:1007D00040F00100A062002084E72DE9F0411546B9
:1007E0000F460446FFF737FD064610E0681C0ED0A2
:1007F00025B1FFF730FD801BA84208D9A06A40F060
:100800000400A062002084F8240003202EE6206863
:10081000006837EA0000E9D1A06A40F48030A062A5
:1008200021686FF00100086000201FE6FDF7E1FF7E
:10083000FE0E1FFF00003FFFF00601FF3C050020F9
:1008400040420F0000280140042401402449922422
:100850004992240070B5044690F8240001280DD078
:10086000012084F824002046FFF77DFE01004FF0B0
:10087000000205D084F82420084670BD022070BD17
:10088000A06A40F60163984340F48070A062FE4D78
:100890002068FE4BA84218D11E6816F4702F14D0A1
:1008A000A66A46F48016A6621E68760505D5A66A75
:1008B00026F4005646F48056A662A66AF6040AD5C7
:1008C000E66A26F00606E66206E0A66A26F48016C8
:1008D000A6624668E9E7E26284F824206FF002022B
:1008E00002602068426842F020024260206882680C
:1008F000C2F34242072A05D1A84208D11A6812F46D
:10090000702F04D0826842F480128260B4E782685B
:1009100042F4A002F9E710B5044690F8240001283B
:1009200007D0012084F824002046FFF7F1FC10B125
:100930000CE0022010BD21684A6822F020024A60C3
:10094000A16A21F4885141F00101A162002184F8DB
:10095000241010BD704710B5406A816A41F0400113
:100960008162C16A41F00401C162FFF7F3FF10BD6B
:10097000704710B5406AFFF7FBFF10BD704710B518
:100980000146406A826A12F0500F05D0006A026B7D
:10099000BDE8104008461047816A41F40071816249
:1009A00001688968C1F3424107290CD1C16851B976
:1009B000816A21F480718162816AC90403D4816AE9
:1009C00041F001018162FFF7D9FF10BD2DE9F04729
:1009D0008946AE4904460068091FAB4F0E1D90467C
:1009E000884201D0B84207D1306810F4702F03D08C
:1009F00001252846BDE8F08794F8240001280CD092
:100A0000012084F824002046FFF7ADFD05004FF0DB
:100A1000000104D084F82410EBE70220EAE7A06A82
:100A200040F60162904340F48070A0622068B842B2
:100A300018D1326812F4702F14D0A06A40F48010DC
:100A4000A0623068400505D5A06A20F4005040F44B
:100A50008050A062A06AC0040AD5E06A20F00600B7
:100A6000E06206E0A26A22F48012A2624068E9E72E
:100A7000E16284F82410AFF2F900216A8862AFF2D3
:100A80000D10216AC862AFF23110216A0863216833
:100A90006FF0020008602068816841F48071816015
:100AA000216843464A464C31206A00F05BFF2068CB
:100AB0008168C1F342410729816803D041F4801164
:100AC000816096E741F4A001FAE710B5044690F87A
:100AD0002400012807D0012084F824002046FFF7D5
:100AE00017FC10B10EE0022010BD2068816821F4CF
:100AF00080718160206A00F061FFA16A30B141F02D
:100B00004001A162002184F8241010BD21F4885115
:100B100041F00101F5E70068C06C7047704710B5FF
:100B2000044600684168890626D50168890723D5EF
:100B3000A16AC90603D4A16A41F40071A162816867
:100B4000C1F34241072910D1E16871B9416821F030
:100B500020014160A06A20F48070A062A06AC004F5
:100B600003D4A06A40F00100A0622046FFF706FF10
:100B700021686FF0120008602068416809062ED5D0
:100B8000016849072BD5A16AC90603D4A16A41F4BB
:100B90000051A1628168C1F30231072909D041687F
:100BA000490515D48168C1F34241072910D1E16894
:100BB00071B9416821F080014160A06A20F4805041
:100BC000A062A06AC00503D4A06A40F00100A06240
:100BD000204600F0ADFB21686FF00C000860206833
:100BE000416849060DD50068C0070AD0A06A40F4E4
:100BF0008030A0622046FFF791FF21686FF001006E
:100C0000086010BDF8B50023009390F824209E469C
:100C1000012A1ED0012280F824204A681F254FF4A3
:100C20007874072A17D20668776B94FAA4FCBCFA8A
:100C30008CFC521E02FB0CFC05FA0CF5AF4394FA37
:100C4000A4F4B4FA84F40D68624395402F437763AB
:100C500032E00220F8BD06680D2A19D2376B94FAEB
:100C6000A4FCBCFA8CFCD21F02FB0CFC05FA0CF5B0
:100C7000AF4394FAA4F4B4FA84F40D686243954047
:100C80002F43376318E0000000280140042401408E
:100C9000F76A94FAA4FCBCFA8CFC0D3A02FB0CFC3B
:100CA00005FA0CF5AF4394FAA4F4B4FA84F40D6891
:100CB000624395402F43F7620A6838250726046887
:100CC0000A2A14D3E76895FAA5FCBCFA8CFC0A3A08
:100CD00002FB0CFC06FA0CF6B74395FAA5F5B5FA3B
:100CE00085F58E686A4396403743E76012E02769CE
:100CF00095FAA5FCBCFA8CFC02FB0CFC06FA0CF67F
:100D0000B74395FAA5F5B5FA85F58E686A4396401E
:100D1000374327610A68102A01D0112A20D1294CB3
:100D20000268A24217D19468240219D4946844F44A
:100D3000000494600968102912D12349234A0968E4
:100D4000B1FBF2F101EB8101490000E0491E009185
:100D50000029FBD104E0816A41F020018162012376
:100D600080F824E01846F8BD30B590F82420012A18
:100D70001ED0012280F824208A68012A0268536864
:100D800018D023F040035360D1E9003213430268C6
:100D900054680F4D2C40234353600368CA685A625D
:100DA000026809699162002180F82410084630BD6C
:100DB000022030BD43F04003E5E7806A7047C06A17
:100DC00070470000002401403C05002040420F0015
:100DD000E0FD3FFFF8B500260446009690F8240099
:100DE000012808D0012084F824002046FFF790FA5B
:100DF000070002D04BE00220F8BDA06A20F4885022
:100E000040F00200A062022002F011F8FB490968DC
:100E1000B1FBF0F0400000E0401E00900028FBD144
:100E20002046FFF7A0FB2068816841F0080181603F
:100E3000FFF711FA054604E0FFF70DFA401B0A28F8
:100E400011D8206880680007F6D42068816841F0D6
:100E500004018160FFF7FFF905460EE0FFF7FBF99B
:100E6000401B0A2809D9A06A20F0020040F01000B7
:100E7000A06284F824600120F8BD206880684007E3
:100E8000ECD4A06A20F0020040F00100A06284F8D7
:100E900024603846F8BD70B5044690F82400012857
:100EA0000DD0012084F824002046FFF75CFB0100F0
:100EB0004FF0000205D084F82420084670BD0220BF
:100EC00070BDA06A42F20103984340F48050A062D2
:100ED000CB4B2068CB4D98421AD12E6816F4702F58
:100EE00016D0A66A46F48016A662A66AF60500D455
:100EF000E26284F824206FF00402026020684268F5
:100F00005205DAD48268C2F30232072A04D009E01B
:100F1000A66A26F48016E7E7984208D12A6812F4F8
:100F2000702F04D0826842F400428260C5E7826874
:100F300042F40212F9E710B5044690F824000128A3
:100F40000ED0012084F82400A06AC00511D42068C6
:100F5000406840050DD42046FFF7DAF910B10DE0E6
:100F6000022010BDA16A21F4885141F00101A16263
:100F700004E0A06A40F02000A0620120002184F873
:100F8000241010BD2DE9F8434FF000080D4604462B
:100F9000CDF80080FFF75FF906462068806B10F4FB
:100FA000401F25D0022001F042FF94490968B1FB9F
:100FB000F0F720680169944A11424FEA62024FEA51
:100FC000A2131AD1C1684FEA621C11EA0C0F14D1A6
:100FD0000169114220D1C06818421DD114201EE0C1
:100FE000681C05D035B3FFF736F9801BA84221D81D
:100FF000206800684007F3D52AE00169114202D158
:10100000C168194206D0026980490A4206D1C06807
:10101000084203D1542002E0292000E0FC2047438D
:10102000009813E0681C0ED025B1FFF714F9801B5F
:10103000A84208D9A06A40F00400A06284F8248085
:101040000320BDE8F8830098401C0090B842E9D323
:1010500021686FF00E000860A06A40F40050A062A2
:1010600020688168C1F30231072909D04168490528
:1010700011D48068C0F3424007280CD1E06850B911
:10108000A06A20F48050A062A06AC00503D4A06AC0
:1010900040F00100A0620020D3E770B5044690F84C
:1010A000240001280DD0012084F824002046FFF7F9
:1010B0005AFA01004FF0000205D084F824200846B7
:1010C00070BD022070BDA06A42F20103984340F453
:1010D0008050A0624A4B20684A4D98421FD12E682A
:1010E00016F4702F1BD0A66A46F48016A662A66A74
:1010F000F60500D4E26284F824206FF00402026056
:101100002068426842F080024260206842685205CE
:10111000D5D48268C2F30232072A04D009E0A66A55
:1011200026F48016E2E7984208D12A6812F4702F5C
:1011300004D0826842F400428260C0E7826842F4D0
:101140000212F9E710B5044690F8240001280ED0E9
:10115000012084F82400A06AC00516D420684068E5
:10116000400512D42046FFF7D3F810B112E0022058
:1011700010BD21684A6822F080024A60A16A21F409
:10118000885141F00101A16204E0A06A40F0200012
:10119000A0620120002184F8241010BD2DE9F04147
:1011A000044690F824008CB016468846012814D0D6
:1011B000012084F824001248009080680027C0F3C2
:1011C000424007280BD0A06A40F02000A06284F8BB
:1011D000247001200CB0BDE8F0810220FAE720461F
:1011E000FFF7C1F9050004D16846FFF7BCF9050017
:1011F0000ED084F824702846ECE700003C0500205F
:1012000000280140042401402449922449922400EA
:10121000A06AEA49084040F48070A06220684068F3
:10122000400505D5A06A20F4005040F48050A0622B
:1012300084F82470E762216AE1488862216AE14803
:10124000C862216AE048086321686FF00200086004
:101250002068816841F4807181602168334642468C
:101260004C31206A00F07EFB20688168C1F3424166
:101270000729816803D041F480118160BBE741F404
:10128000A001FAE730B5044690F824008DB001289B
:1012900008D0012084F824002046FFF739F8002503
:1012A00018B122E002200DB030BDC8480090684659
:1012B000FFF72EF838B1A06A40F01000A06284F861
:1012C00024500120EFE72068816821F4807181605B
:1012D0002068416821F470214160206A00F06EFBB3
:1012E000A16A28B141F04001A16284F82450DAE7F4
:1012F00021F4885141F00101F6E70068022909D084
:10130000032905D0042901D0C06B7047806C704759
:10131000406C7047006C70470068C06CAC4909684D
:10132000C90504D4A9494C31096840EA0140704715
:101330007047F8B50022009290F8244083689646E2
:10134000012C2CD0012480F824404FF4787643B34C
:101350004C680B691F259C423AD81C1B96FAA6F7CD
:10136000C4F10304B7FA87F76743BD4045F4401C56
:101370000568AF6B96FAA6F6B6FA86F674430E6861
:1013800027EA0C07A6404FF4401494FAA4F4B4FAE8
:1013900084F45B1EA3401E433743AF6327E0022063
:1013A000F8BD4B68012B05D0826A42F020028262B0
:1013B00001221CE096FAA6F3B3FA83F30C6803EB60
:1013C00043039C4003689D6B6FF315052C430DE0B0
:1013D0001B1B96FAA6F4C3F10303B4FA84F4634327
:1013E0009D40036845F440159C6BAC439C630368C7
:1013F0009C68E443E40706D09C6847F20105AC43CF
:10140000CD692C439C608B69012B08D1CB69B3F566
:10141000E04F08D0826A42F02002826201224B69CA
:10142000012B06D00CE003685C6844F480645C60C7
:10143000F5E78B69FBB1826A42F0200282620122E9
:101440000B683825072604680A2B1AD3E76895FA33
:10145000A5FCBCFA8CFC0A3B03FB0CFC06FA0CF660
:10146000B74395FAA5F5B5FA85F58E686B439E40AE
:101470003743E76018E003685C6844F480545C60BC
:10148000DEE7276995FAA5FCBCFA8CFC03FB0CFC93
:1014900006FA0CF6B74395FAA5F5B5FA85F58E6808
:1014A0006B439E40374327610B68102B01D0112BF3
:1014B00004D103689C6844F400049C604B68012BD1
:1014C00010D0022B16D0032B03681BD01C6ACD68EA
:1014D0006FF30B042C431C620B68102B19D0112BDB
:1014E00017D038E003685C69CD686FF30B042C43B8
:1014F0005C61F1E703689C69CD686FF30B042C43D2
:101500009C61E9E7DC69CD686FF30B042C43DC6177
:10151000E2E72F4C0368083CA34217D19C682402E1
:1015200019D49C6844F400049C600968102912D105
:101530002849294B0968B1FBF3F101EB810149000E
:1015400000E0491E00910029FBD104E0816A41F0CE
:1015500020018162012280F824E01046F8BD10B518
:1015600090F8242000238CB0012A19D0012280F8A1
:101570002420164A009202689468E443E40712D0DB
:10158000009CA468E443E4070DD0114C083CA2423F
:1015900009D15468096824F470240C43546007E0AE
:1015A00002200CB010BD816A41F02001816201234C
:1015B000002180F824101846F3E70000FEFDEFFF3D
:1015C0007F09000873090008570900080028014036
:1015D000082401403C05002040420F00744A00F0FE
:1015E000070110684FF6FF03184040EA01207149D7
:1015F000084310607047F0B46D4B1B68C3F30223BF
:10160000C3F10704042C00D904241D1D072D01D2A9
:10161000002300E0DB1E012606FA04F56D1E0D40D6
:101620009D409E40761E164045EA0601F0BC00F043
:10163000AEB800F01F02012191404009800000F186
:10164000E020C0F80011704700F01F020121914016
:101650004009800000F1E020C0F880117047BFF31E
:101660004F8F53480168534A01F4E061121D114342
:101670000160BFF34F8F00BFFDE710B5401EB0F112
:10168000807F01D3012010BD4FF0E02460610F2165
:10169000601700F07CF80020A06107202061002086
:1016A00010BD43480068C0F302207047F0B5002821
:1016B00006DA00F00F0000F1E02090F8140D03E0CE
:1016C00000F1E02090F80004040901F00700C0F1E7
:1016D0000701042900D90421051D072D01D200208E
:1016E00000E0C01E012724FA00F607FA01F56D1E7E
:1016F0002E4007FA00F56D1E254016601D60F0BDF6
:1017000000F01F02012191404009800000F1E0201B
:10171000C0F8001270474109890001F1E021D1F8B9
:10172000001200F01F0201209040014201D0012070
:1017300070470020704700F01F02012191404009CE
:10174000800000F1E020C0F8801270474109890054
:1017500001F1E021D1F8001300F01F0201209040B8
:10176000014201D001207047002070474FF0E02176
:101770000428086903D020F004000861704740F095
:101780000400FAE7704710B5FFF7FCFF10BD09072A
:10179000090E002806DA00F00F0000F1E02080F8C2
:1017A000141D704700F1E02080F80014704700001D
:1017B0000CED00E00000FA0570B520B190F82110A2
:1017C000002411B103E0012070BD80F82040022107
:1017D00080F8211001680A6843F6F0739A43D0E953
:1017E00001352B43D0E9035635432B4345692B4341
:1017F00085692B43C5692B4313430B604463012167
:1018000080F82110002070BDF0B538B390F8211099
:10181000022923D001680A6822F001020A600168E7
:101820004FF0000EC1F800E00168C1F804E0016863
:10183000C1F808E00168C1F80CE0FA4AF94BF94C2C
:10184000F84DF84EDFF8DCC30168143228333C341D
:1018500050356436614503D102211BE00120F0BD03
:10186000914201D1202115E0994202D14FF400713B
:1018700010E0A14202D14FF400510BE0A94202D185
:101880004FF4003106E0B14202D14FF4001101E003
:101890004FF00071E34F083F79600168614501D165
:1018A000082119E0914201D1802115E0994202D12D
:1018B0004FF4006110E0A14202D14FF400410BE06F
:1018C000A94202D14FF4002106E0B14202D14FF407
:1018D000000101E04FF0006179600168614501D1CC
:1018E000042119E0914201D1402115E0994202D131
:1018F0004FF4806110E0A14202D14FF480410BE02F
:10190000A94202D14FF4802106E0B14202D14FF446
:10191000800101E04FF080617960C0F834E080F828
:1019200021E080F820E00020F0BD70B5044690F87A
:101930002000012814D0012084F82000022084F81F
:1019400021002068056825F001050560204600F0AB
:10195000A3FA2068016841F001010160002070BD18
:10196000022070BD70B5044690F82000012823D0F5
:10197000012084F82000022084F8210020680568F6
:1019800025F001050560204600F086FA2068016810
:1019900041F0020101602068016841F0040101602A
:1019A0002068016841F0080101602068016841F089
:1019B00001010160002070BD022070BD2DE9F041E1
:1019C00004460068016821F001010160FEF743FC54
:1019D000054600264FF47A770FE0FEF73CFC401BEB
:1019E000B8420AD954F8340F40F0200044F81409E2
:1019F000032060702670BDE8F08120680068C00791
:101A0000EBD1012084F8210084F820600020F2E767
:101A10002DE9F74F82B0834E824F03991436283751
:101A20000446DFF80082DFF8FC91DFF8F8A1002916
:101A300000687C49154608F13C0809F150090AF193
:101A4000640A03D0884220D1042038E0884201D1C2
:101A5000022034E0B04201D1202030E0B84202D16F
:101A60004FF400702BE0404502D14FF4005026E0C7
:101A7000484502D14FF4003021E0504502D14FF4E7
:101A800000101CE04FF0007019E0B04201D140207E
:101A900015E0B84202D14FF4806010E0404502D119
:101AA0004FF480400BE0484502D14FF4802006E01F
:101AB000504502D14FF4800001E04FF08060834632
:101AC000FEF7C9FB009067E00A6856492068884223
:101AD00001D1082119E0B04201D1802115E0B842BE
:101AE00002D14FF4006110E0404502D14FF40041B3
:101AF0000BE0484502D14FF4002106E0504502D1E9
:101B00004FF4000101E04FF000610A422FD0454937
:101B1000884201D1082019E0B04201D1802015E0AF
:101B2000B84202D14FF4006010E0404502D14FF4BA
:101B300000400BE0484502D14FF4002006E050453C
:101B400002D14FF4000001E04FF000603549083940
:101B5000486054F8340F40F0010044F814090420A0
:101B6000607000202070012005B0BDE8F08F681C77
:101B700012D02DB1FEF76FFB0099401AA8420BD985
:101B800054F8340F40F0200044F81409032060702A
:101B9000002020700320E7E722490839086810EA8E
:101BA0000B0F91D003981F490028206803D088426A
:101BB00024D104203FE0884201D1022019E0B04244
:101BC00001D1202015E0B84202D14FF4007010E09E
:101BD000404502D14FF400500BE0484502D14FF48C
:101BE000003006E0504502D14FF4001001E04FF004
:101BF00000700C490839486001201FE0B04201D153
:101C0000402018E0B84202D14FF4806013E0404514
:101C100002D14FF480400EE0484505D14FF48020BA
:101C200009E0000008000240504502D14FF4800056
:101C300001E04FF08060A0494860112084F8210045
:101C4000002084F820008FE72DE9F05FDFF868823C
:101C50000446D8F800C0DFF860B2974D964E964F14
:101C600000684FF40061DFF85092DFF84CA20BF1EE
:101C7000080B0B011C35303644374FF4002E09F1A8
:101C800058090AF16C0A584501D1082216E0A84209
:101C900001D1802212E0B04201D10A460EE0B842E2
:101CA00001D11A460AE0484501D1724606E0504586
:101CB00002D14FF4000201E04FF000621CEA020F73
:101CC00031D00268D24312072DD4026822F00802F4
:101CD00002602068584501D1082114E0A84201D1D2
:101CE000802110E0B0420ED0B84201D119460AE07E
:101CF000484501D1714606E0504502D14FF400013C
:101D000001E04FF00061C8F80410606B40F0010082
:101D10006063042084F82100002084F82000216BF7
:101D200009B1204688476448D0F800804FF48061AC
:101D300020680B014FF4802E4FF0806C584501D184
:101D4000042215E0A84201D1402211E0B04201D1A5
:101D50000A460DE0B84201D11A4609E0484501D1D2
:101D6000724605E0504502D14FF4800200E0624621
:101D700018EA020F2CD00268D243520728D4026816
:101D8000920603D4026822F00402026020685845DB
:101D900001D1042113E0A84201D140210FE0B0425B
:101DA0000DD0B84201D1194609E0484501D171462C
:101DB00005E0504502D14FF4800100E061463E4805
:101DC0004160112084F82100E16A09B1204688476A
:101DD000394BD3F80080DC46206859154FF4005B7E
:101DE0004FF4003E604501D1022216E0A84201D125
:101DF000202212E0B04201D10A460EE0B84201D1E1
:101E00005A460AE0484501D1724606E0504502D1E3
:101E10004FF4001201E04FF0007218EA020F34D0C4
:101E20000268D243920730D40268920603D4026853
:101E300022F0020202602068604501D1022114E014
:101E4000A84201D1202110E0B0420ED0B84201D109
:101E500059460AE0484501D1714606E0504502D195
:101E60004FF4001101E04FF000715960606B606346
:101E7000012084F82100002084F82000A16A0029B4
:101E800003D02046BDE8F05F0847BDE8F09F90F81A
:101E900021007047406B704710B504686360436869
:101EA000102B036803D099600068C26010BD9A606F
:101EB0000068C16010BD0000000002402DE9F84F2D
:101EC000DFF8C092002309F1040A0AF1040B1C4652
:101ED0004FF00F080BF1040E01270A68A7403A40A3
:101EE000BA4272D1DFF8A0C24D68A5EB0C06654579
:101EF0002BD00DDC032D34D005DC35B3012D19D0EA
:101F0000022D2FD11BE0112D16D0122D2AD119E050
:101F1000B6F5881F19D006DCB6F5803F15D0B6F5AA
:101F2000801F1FD111E0B6F5001F0ED0B6F5041FBB
:101F300018D10AE0CB6815E0CB681B1D12E0CB6816
:101F400008330FE0CB680C330CE08B682BB1012B0E
:101F50004FF0080303D0476104E0042302E0076167
:101F600000E00023FF2A01D8064601E000F1040644
:101F70004FEA840501D9A5F12005376808FA05FC68
:101F800027EA0C0703FA05F547EA050737604D68AD
:101F9000ED0060D57D4DAE6946F00106AE61AD69DC
:101FA00024F0030605F001050095794D7719BE6808
:101FB000A5072D0F08FA05FC26EA0C06DFF8D4C1A8
:101FC000604503D14FF0000C17E044E0DFF8C8C1D2
:101FD000604502D14FF0010C0FE0DFF8C0C1604551
:101FE00002D14FF0020C08E0DFF8B4C1604502D125
:101FF0004FF0030C01E04FF0040C0CFA05FC4CEA26
:10200000060CC7F808C04D68D9F80060ED034D46CE
:1020100001D5164300E096432E604D68DAF8006063
:10202000AD03554601D5164300E096432E604D683A
:10203000DBF80060ED025D4601D5164300E09643F3
:102040002E604D68DEF80060AD02754601D516437E
:1020500000E096432E60641C102CFFF43DAFBDE8F9
:10206000F88F2DE9F04300220F27DFF8249159E083
:10207000012393400B4054D0FF2B01D8054601E0CB
:1020800000F104054FEA820401D9A4F12004D5F837
:1020900000C007FA04F82CEA080C4FF0040808FA0C
:1020A00004F84CEA080CC5F800C0C46824EA03042C
:1020B000C46022F003054D44AC684FEA827C4FEACD
:1020C0001C7C07FA0CF606EA0408324CA04201D147
:1020D00000240FE0304CA04201D101240AE02F4C33
:1020E000A04201D1022405E02D4CA04201D10324DD
:1020F00000E0042404FA0CF4444512D1AC68B44363
:10210000AC60204C25689D432560241D25689D43B7
:102110002560241D25689D432560241D25689D4359
:102120002560521C31FA02F3A2D1BDE8F083806829
:10213000084000D0012070470AB1016170470904CE
:10214000FBE7C2684A40C260704708B541F480327C
:102150000092826181610099816181690091806949
:10216000C00301D5002008BD012008BD7047054906
:1021700010B514310A68024202D00860FFF7F6FF7A
:1021800010BD0000000401400000111000100240CA
:102190000000014000080140000C01400010014017
:1021A0000014014020BF00BF70476F48016941F033
:1021B00080510161016921F0805101617047012066
:1021C000010291FAA1F1694AB1FA81F142F82100C4
:1021D00070474FF4807191FAA1F1644AB1FA81F12C
:1021E000002042F82100704730B561490A68036851
:1021F00022F0E0021A430A605E4B196821F4803134
:1022000019601A1F116821F480311160594C08348B
:10221000216821F480312160191D0D6825F4803575
:102220000D604568ED0303D5156845F480351560EC
:102230004268920303D51A6842F480321A60027928
:10224000D20703D00A6842F480320A60007980071E
:1022500003D5206840F48030206030BD012010217B
:1022600091FAA1F1414AB1FA81F142F82100704797
:102270000020102191FAA1F13C4AB1FA81F142F813
:102280002100704790FAA0F0384AB0FA80F002EBD3
:1022900080000121C0F88010704790FAA0F0334A06
:1022A000B0FA80F002EB80000021C0F88010704787
:1022B0003148026822F004020260012903D040BFC5
:1022C00020BF20BF704730BF7047294A10B5136840
:1022D00023F002031360136823F001030343136028
:1022E000254C206840F004002060012909D040BF3F
:1022F000FFF758FFFFF756FF206820F0040020602A
:1023000010BD30BFF8E71A48016841F002010160D2
:102310001948016841F00401016030BF7047164858
:10232000016841F00201016070471348016821F023
:102330000201016070471048016841F0100101601E
:1023400070470D48016821F0100101607047704727
:1023500010B5084C10342068C00304D5FFF7F7FF10
:102360004FF48030206010BD0010024000000E428B
:10237000007000400404014010ED00E0FB4810B57F
:10238000416821F0030141600168F94A1140016090
:10239000016821F480210160002141600268F82475
:1023A00094FAA4F41023B4FA84F422F0F802A340BF
:1023B0001A4302608160F049EE48086010BD2DE9C3
:1023C000F84F04460078E94EC0074FF001057FD072
:1023D00070684FF40038C0F38100012807D070689E
:1023E000C0F3810002281BD17068C00318D598FA89
:1023F000A8F0B0FA80F040F02000400901D0306829
:1024000000E0706A98FAA8F1B1FA81F101F01F01B9
:1024100005FA01F108425BD06068002879D057E0E6
:102420006068B0F5803F0BD010B1B0F5A02F11D08F
:10243000306820F480303060306820F4802002E082
:10244000306840F480303060606818B3FDF703FFF7
:10245000074609E0306840F480203060F0E7FDF77F
:10246000FAFEC01B642870D898FAA8F0B0FA80F081
:1024700040F02000400901D0306800E0706A98FA0E
:10248000A8F1B1FA81F101F01F0105FA01F108424A
:10249000E5D01DE0FDF7DFFE074604E0FDF7DBFEBB
:1024A000C01B6428DFD898FAA8F0B0FA80F040F09A
:1024B0002000400901D0306800E0706A98FAA8F165
:1024C000B1FA81F101F01F0105FA01F10842E5D1ED
:1024D0002078DFF8A88280074FF0000A4FF002074B
:1024E0005AD570684FF0F80B10F00C0F07D07068D9
:1024F000C0F3810002281CD17068C00319D497FA78
:10250000A7F0B0FA80F040F02000400902D0306817
:1025100001E08AE0706A97FAA7F1B1FA81F101F05F
:102520001F0105FA01F108422BD0206901287CD156
:1025300027E0206988B395FAA5F0B0FA80F048F852
:102540002050FDF788FE814606E052E1FDF783FE4C
:10255000A0EB0900022886D897FAA7F0B0FA80F01D
:1025600040F02000400901D0306800E0706A97FA1E
:10257000A7F1B1FA81F101F01F0105FA01F108425A
:10258000E4D030689BFAABF220F0F8016069B2FA4F
:1025900082F290400143316025E0FFE795FAA5F112
:1025A000B1FA81F148F821A0FDF755FE814605E01A
:1025B000FDF751FEA0EB09000228CCD897FAA7F04E
:1025C000B0FA80F040F02000400901D0306800E00F
:1025D000706A97FAA7F1B1FA81F101F01F0105FACB
:1025E00001F10842E4D1207800076DD5A069B8B3A5
:1025F00095FAA5F0B0FA80F008EB8000C0F880549E
:10260000FDF729FE814605E0FDF725FEA0EB090058
:102610000228A0D897FAA7F0B0FA80F040F0600046
:10262000B5EB501F02D130680CE068E197FAA7F0D3
:10263000B0FA80F040F06000B7EB501F01D1306A73
:1026400000E0706A97FAA7F1B1FA81F101F01F0179
:1026500005FA01F21042D7D00120FDF7FFFD33E06B
:10266000FFE795FAA5F1B1FA81F108EB8101C1F814
:1026700080A4FDF7F0FD814605E0FDF7ECFDA0EB41
:102680000900022899D897FAA7F0B0FA80F040F034
:102690006000B5EB501F01D130680BE097FAA7F04E
:1026A000B0FA80F040F06000B7EB501F01D1306A03
:1026B00000E0706A97FAA7F1B1FA81F101F01F0109
:1026C00005FA01F21042D8D12078400770D5F069A0
:1026D00040F08050F061F069DFF8A4B000F0805065
:1026E0000090DBF8001041F48071CBF80010FDF78A
:1026F000B2FD814605E0FDF7AEFDA0EB09006428C0
:1027000077D8DBF80000C005F5D5E06801280AD0CD
:1027100008B1052813D0306A20F001003062306A19
:1027200020F0040002E0306A40F001003062E0680E
:1027300041F2883BC8B1FDF78EFD81460AE0306A60
:1027400040F004003062EEE7FDF785FDA0EB0901E3
:1027500059454ED897FAA7F0B0FA80F040F0400003
:10276000B5EB501F0ED1306818E022E00010024097
:10277000FFFFF6FE00127A003C05002000004242F6
:102780000070004097FAA7F0B0FA80F040F04000E7
:10279000B7EB501F01D1306A00E0706A97FAA7F1D9
:1027A000B1FA81F101F01F0205FA02F10842CBD023
:1027B0002BE0FDF750FD814605E0FDF74CFDA0EB59
:1027C0000901594515D897FAA7F0B0FA80F040F002
:1027D0004000B5EB501F01D130680CE097FAA7F02C
:1027E000B0FA80F040F04000B7EB501F02D1306AE1
:1027F00001E08AE0706A97FAA7F1B1FA81F101F07D
:102800001F0205FA02F10842D7D1E06998B3716856
:10281000C1F38101022972D002284FF080714FF07C
:10282000007B50460AD091FAA1F1B1FA81F148F843
:102830002100FDF710FD04465F4669E08A4691FAE3
:10284000A1F1B1FA81F1C14648F82100FDF703FD7D
:10285000A84607465D4604E0FDF7FDFCC01B0228C4
:1028600053D895FAA5F0B0FA80F040F02000400966
:1028700002D0306801E060E0706A95FAA5F1B1FA23
:1028800081F101F01F0208FA02F10842E4D1206A46
:10289000B0F5803F05D17068A16820F4003008438E
:1028A0007060D4E908010843716821F47411084389
:1028B00070609AFAAAF0B0FA80F0474649F8208092
:1028C000FDF7C9FC044604E0FDF7C5FC001B022827
:1028D0001BD895FAA5F0B0FA80F040F0200040092E
:1028E00001D0306800E0706A95FAA5F1B1FA81F183
:1028F00001F01F0107FA01F10842E5D01DE01EE0DA
:10290000FDF7A9FC001B022802D90320BDE8F88FBF
:1029100097FAA7F0B0FA80F040F02000400901D00B
:10292000306800E0706A97FAA7F1B1FA81F101F01E
:102930001F0105FA01F10842E2D10020E6E701207B
:10294000E4E710B5DAA085B00FC88DE80F00DCA071
:10295000DC4B006804905968DB4801F00C02042A43
:102960001DD0082A1BD14FF4701494FAA4F401F47A
:102970007012B4FA84F4E240C9031DF8022010D5A5
:1029800059684FF4003393FAA3F301F40031B3FA1A
:1029900083F3D94004AB595CB0FBF1F0504305B070
:1029A00010BDCA485043FAE72DE9F047DFF820830D
:1029B00004460E46D8F8000000F00700B0420CD2E2
:1029C000D8F8001021F007013143C8F80010D8F8FA
:1029D000000000F00700B04273D12078B94F8007A3
:1029E00005D57868A16820F0F00008437860207869
:1029F000C00755D06068012201280CD0022828D0D9
:102A0000022393FAA3F1B1FA81F141F020014909BF
:102A100004D0396803E04FF40033F2E7796A93FA9F
:102A2000A3F3B3FA83F303F01F039A40114248D093
:102A3000796821F0030101437960FDF70CFC05463C
:102A4000606841F2883101280CD00228894615D0EF
:102A500022E04FF00073D4E7FDF7FDFB411B494531
:102A600001D916E089467868C0F381000128F3D1C6
:102A700016E0FDF7F0FB411B49450AD87868C0F322
:102A800081000228F5D10BE0FDF7E5FB411B49452C
:102A900002D90320BDE8F087786810F00C0FF3D15D
:102AA000D8F80010404601F00701B1420BD9016887
:102AB00021F0070131430160006800F00700B042D7
:102AC00001D00120E6E72078400705D57868E16865
:102AD00020F4E060084378602078000706D5786825
:102AE000216920F4605040EAC1007860FFF729FFB7
:102AF0007968F02292FAA2F201F0F001B2FA82F2C1
:102B0000D140744A515CC840734908600020FDF709
:102B10006EFB0020BEE730B585B000200290022099
:102B2000019003200390674C4FF480700090A069DF
:102B30000D4640F00400A061A069694600F0040061
:102B400004906648FFF7BAF9606820F0E060284317
:102B5000606005B030BD0120C10491FAA1F1604A66
:102B6000B1FA81F142F8210070474FF4002191FA47
:102B7000A1F15B4AB1FA81F1002042F821007047CF
:102B800055480068704754484E49006849684FF4FA
:102B9000E06292FAA2F201F4E061B2FA82F2D1406C
:102BA000504A515CC84070474B48464900684968E4
:102BB0004FF4605292FAA2F201F46051B2FA82F23A
:102BC000D140484A515CC840704730B53D4B0F2159
:102BD000016019684A034FF0000102D54FF4A022AA
:102BE00004E01A68D20303D54FF48032426000E05B
:102BF00041605A6802F4003282601A68D4074FF0CC
:102C0000010201D0026100E001611C68F82595FA1B
:102C1000A5F504F0F804B5FA85F5EC4044611C6AAA
:102C2000640702D50524C46005E01C6AE40701D0EE
:102C3000C26000E0C1605C6AE40701D0826100E02C
:102C400081611968C90102D50221C16100E0C26138
:102C5000596801F480310162596801F470114162D0
:102C600030BD0F220260174A536803F0030343602C
:102C7000536803F0F0038360536803F4E063C360B8
:102C800052684FF4E06303EAD20202611048006820
:102C900000F0070008607047704710B5094CA06845
:102CA000000603D5FFF7F8FF8020A07210BD0000DA
:102CB00002030405060708090A0B0C0D0E0F10107D
:102CC000010200000010024000127A0000093D00DD
:102CD00000200240F40C01083C05002000080140DF
:102CE00000004242040D01082DE9F8430446007833
:102CF000824EC00773D0F06940F08050F061F069F7
:102D00007F4F00F080500090386840F48070386049
:102D1000FDF7A1FA054604E0FDF79DFA401B642883
:102D200032D83868C005F7D5306A10F4407050D0FA
:102D3000A18801F4407181424BD0306A01273B04E5
:102D400093FAA3F1B1FA81F18A006E4920F4407040
:102D50000A44C2F8007493FAA3F3B3FA83F301EBC5
:102D600083010022C1F800243062C00731D0FDF792
:102D700072FA054641F288394FF0020807E0FDF784
:102D80006AFA411B494502D90320BDE8F88398FA45
:102D9000A8F0B0FA80F040F040004146B7EB501F79
:102DA00001D130680BE091FAA1F0B0FA80F040F068
:102DB0004000B1EB501F01D1306A00E0706A98FA10
:102DC000A8F1B1FA81F101F01F0207FA02F10842FD
:102DD000D5D0306A616820F44070084330622078B2
:102DE000800705D57068A16820F4404008437060F2
:102DF0002078C00605D57068E16820F4800008439B
:102E000070600020C1E7012101603C490A6A02F4B8
:102E100040724260032202604A6802F440428260CB
:102E200013220260496801F48001C160704710B547
:102E3000014635A086B01DC88DE81D0036A02F4C78
:102E4000006804900020012930D0022947D01029C1
:102E50002AD161682268D20126D54FF4701292FA05
:102E6000A2F201F47010B2FA82F2D040C9031DF848
:102E7000000010D561684FF4003292FAA2F201F41A
:102E80000031B2FA82F2D14004AA515C234AB2FB6B
:102E9000F1F1484301E0224948436168490203D403
:102EA00040000321B0FBF1F006B010BD216AC1F370
:102EB0000122012A03D1890701D5D003F4E7022AB0
:102EC00005D1616A890702D549F64040ECE7032A3B
:102ED000EAD121688903E7D54FF22440E4E7FFF700
:102EE00063FE61684FF4804292FAA2F201F440411D
:102EF000B2FA82F2D140491C4900D3E700100240E7
:102F00000070004000004242020304050607080961
:102F10000A0B0C0D0E0F10100102000000127A00B7
:102F200000093D00704770B5040004D094F85100CA
:102F3000002510B106E0012070BD84F850502046F5
:102F400009F04AFC022084F851002068016821F051
:102F500040010160D4E901010843D4E9031211439F
:102F6000084361690843218B01F400710843E1695A
:102F70000843216A0843A16A084321680860A069E0
:102F8000042101EA1040616A084321684860216811
:102F9000E06A08616565012084F85100002070BD79
:102FA000704710B5040011D0022084F85100206849
:102FB000016821F040010160204609F03DFC00203D
:102FC000606584F8510084F8500010BD012010BDE8
:102FD0002DE9F0471D4690460F460446FDF73BF9A4
:102FE00006465FEA08004FF000084FF4005A4FF021
:102FF000010926D034E0681C23D025B1FDF72BF958
:10300000801BA8421DD92068416821F0E001416081
:103010002068016821F040010160A06A504509D193
:103020002068016821F4005101602068016841F4C2
:103030000051016084F8519084F850800320BDE86D
:10304000F0872068806837EA0000D4D10DE0681C62
:1030500006D0002DD7D0FDF7FEF8801BA842D2D8AD
:103060002068806837EA0000F1D00020E7E72DE90A
:10307000F843044690F851009846012870D139B3BE
:1030800032B394F8500001286AD0012784F85070B8
:10309000122084F85100002666652163A286E2862C
:1030A000E664A664A663A687E687A06A7D03A842B5
:1030B00009D12068016821F400510160206801688D
:1030C00041F400510160A068B0F5004F03D007E063
:1030D0000120BDE8F8832068016841F48041016067
:1030E00020680168490603D4016841F0400101608D
:1030F000E0680028606804D0D8B1E08E012818D0BC
:1031000021E010B1E08E012808D1206B411C216321
:1031100021680078C860E08E401EE0860004000C44
:103120001FD04346002202212046FFF751FFA8B9D5
:10313000EBE7206B21680088C860206B801C20634F
:10314000E08E401EE0860004000C0AD043460022B8
:1031500002212046FFF73CFF0028EAD00320B8E711
:1031600026E0A06AA84204D12068016841F4805199
:1031700001604346002202212046FFF729FF30B9B3
:103180004346012280212046FFF722FF20B1606DD7
:1031900040F010006065E1E7A06818B92068C168D8
:1031A0008068009084F8517084F85060002090E7A7
:1031B00002208EE7012070472DE9F8430026DDF854
:1031C00020800446ADF8006090F85100012803D03B
:1031D00094F8510022287DD169B162B15BB194F8B5
:1031E0005000012876D0012784F8507094F85100DF
:1031F000012802D004E001206BE7322084F851005E
:103200006665A263A387E3872163A386E386A6643A
:10321000E664A06A4FF40055A84209D1206801680D
:1032200021F4005101602068016841F400510160FF
:1032300020680168490603D4016841F0400101603B
:10324000E0684FF48271B0F5006F606807D0002825
:1032500067D088426ED1E08E012862D06AE020B14A
:1032600088420CD1E08E012809D1206B21680088AA
:10327000C860206B801C2063E08E401EE086E08EDC
:1032800080B9A06AA84244D12068016841F4805105
:1032900001603EE02068C068A16B0880A06B801CC4
:1032A000A0639EE04346002202212046FFF790FEE5
:1032B000002873D1206B21680088C860206B801CB7
:1032C0002063E08E401E0004000CE08609D1A06A55
:1032D000A84200E0C6E004D12068016841F48051B2
:1032E00001604346002201212046FFF771FE0028BD
:1032F0006FD12068C068A16B0880A06B801CA063A0
:10330000E08F401EE087E08E0028CBD16068002867
:103310006AD14346002201212046FFF759FEE8BB4F
:10332000B8E7206B411C216321680078C860E08EFB
:10333000401EE086E08E98B9A06AA84204D12068B9
:10334000016841F48051016043460022012120467A
:10335000FFF73EFE10BB2068C068A16B087040E01C
:103360004346002202212046FFF732FEB0B9206B0F
:10337000411C216321680078C860E08E401E000473
:10338000000CE08607D1A06AA84204D12068016839
:1033900041F4805101604346002200E019E0012120
:1033A0002046FFF715FEA0B92068C168A06B421C3B
:1033B000A2630170E08F401EE087E08E0028CFD12D
:1033C000606888B94346002201212046FFF700FECD
:1033D00008B103207DE62068C168A06B421CA2638F
:1033E0000170E08F401EE087A06AA84210D14346DA
:1033F000002201212046FFF7EBFD18B1606D40F07F
:1034000002000FE02068C068ADF80000BDF80000C1
:103410004346012280212046FFF7DAFD20B1606D8E
:1034200040F010006065D4E784F85170A06AA842AB
:1034300014D120688168C943C9060FD4616D41F079
:1034400002016165016821F4005101602068016892
:1034500041F40051016084F85060CCE684F850607B
:10346000002036E6022034E62DE9F84F00259A4682
:103470000446ADF8005090F8510001287ED1E9B320
:10348000E2B394F85000012878D0012784F85070F6
:10349000222084F851006565A163A287E287A564B4
:1034A000E5642563A586E586A0684FF40049484594
:1034B00004D12068036823F480430360A06A4FF4BA
:1034C0000056B04209D12068036823F4005303601A
:1034D0002068036843F40053036060684FF4827807
:1034E000404501D1A06878B120680168490603D43D
:1034F000016841F040010160E06800E001E0E8B1EE
:1035000031E00120BDE8F88F84F8505013460A4698
:103510002046CDF800A0FFF74FFEF3E75346002208
:1035200001212046FFF754FD48BB2068C168A06B0D
:10353000421CA2630170E08F401EE087E08F0128EB
:10354000ECD813E05346002201212046FFF740FD4E
:10355000A8B92068C068A16B0880A06B801CA0631C
:10356000E08F401EE087E08F0128EBD8A06AB042D0
:1035700007D12068016841F4805101E068E007E06C
:1035800001605346002201212046FFF721FD08B1CA
:103590000320B7E7E0680028206817D0C068A16B57
:1035A0000880A06B801CA063E08F401EE087A06AAB
:1035B000B04217D15346002201212046FFF708FDF3
:1035C00050B1606D40F002006065E1E7C168A06B3A
:1035D000421CA2630170E7E72068C068ADF80000F4
:1035E000BDF80000606840450AD1A068484502D097
:1035F000B0F5806F04D12068016821F040010160BE
:1036000084F85170A06AB0420DD120688068C04330
:10361000C00608D4204600F08DFD012807D021689F
:103620006FF01000886084F8505000206AE7606DE9
:1036300040F0020060652068016821F400510160DB
:103640002068016841F40051016084F8505058E747
:10365000022057E7704770477047C3680268016BE4
:103660007BB10988D160016B891C0163C18E491E41
:103670000904090CC18610D1816AB1F5005F05D03B
:1036800009E04B1C03630978D160EFE701680A6821
:1036900042F480520A6000F0C9BC704710B590F83F
:1036A0005130012B47D1D1B1CAB190F85030012B24
:1036B00041D0012380F85030122380F8513000238C
:1036C0004365FE4CC46401638286C286836483635F
:1036D0008387C3878168B1F5004F02D006E00120DF
:1036E00010BD01680A6842F480420A60816AB1F53F
:1036F000005F09D101680A6822F400520A6001687B
:103700000A6842F400520A608168002901684A6828
:103710000ED042F0A0024A6080F850300068016884
:10372000490603D4016841F040010160002010BD4A
:1037300042F08002EFE7022010BD704738B5044622
:103740000020ADF80000A06AB0F5005F2DD10A237B
:10375000002201212046FFF73BFC18B1606D40F0CC
:10376000100060652068C068ADF80000BDF800007A
:1037700001220A2311462046FFF72AFC18B1606D8A
:1037800040F01000606520688068C043C0060CD41B
:1037900094F8510022281BD1204600F0CBFC0128D0
:1037A00016D021686FF0100088602068416821F011
:1037B0004001416020684168C94309062BD5416832
:1037C00021F0200141606068B0F5827F0FD01AE0DF
:1037D000606D40F0020060652068016821F40051CE
:1037E00001602068016841F400510160DDE7A068D4
:1037F000B0F5004F02D0B0F5806F04D120680168A9
:1038000021F040010160616D012029B184F851006F
:103810002046FFF71FFF38BD94F8511084F851007F
:103820003229204602D0FFF788FF38BDFFF714FF8A
:1038300038BD0268C368816BD26853B10A80816B5E
:10384000891C8163C18F491E0904090CC18704D1F9
:1038500074E74B1C83630A70F4E7704730B590F847
:103860005140012C09D04468B4F5827F46D1846868
:10387000F4BB90F85140222C40D101B3FAB1F3B11E
:1038800090F85040012C39D0012480F8504090F835
:103890005140222C02D0322480F85140002444654B
:1038A000864DC56401638386C386854982638164CE
:1038B0008387C387816AB1F5005F02D00BE00120E6
:1038C00030BD01680A6822F400520A6001680A6883
:1038D00042F400520A6001684A6842F0E0024A601D
:1038E00080F8504000680168490605D4016800E08E
:1038F00004E041F040010160002030BD022030BDF5
:103900000268C368816BD26853B10A80816B891CDD
:103910008163C18F491E89B2C187012904D00CE09F
:103920004B1C83630A70F4E7816AB1F5005F08D12C
:1039300001680A6842F480520A60C18F002900D1F0
:10394000FCE6704710B490F85130012B4FD1D9B13B
:10395000D2B190F85030012B49D0012380F850307B
:10396000222380F8513000234365564C84648163E0
:103970008287C287C36403638386C3868468B4F581
:10398000004F04D04CB10CE0012010BC704701681E
:103990000A6822F480420A6003E04468B4F5827F3A
:1039A00004D0816AB1F5005F06D00FE080F8503096
:1039B000134610BC0A4651E701680A6822F4005217
:1039C0000A6001680A6842F400520A6001684A68A5
:1039D00042F060024A6080F8503000680168490691
:1039E00003D4016841F0400101600020CDE70220CE
:1039F000CBE710B5406A0021C186C187012180F85C
:103A00005110416D41F008014165FFF723FE10BDE3
:103A100038B5446A0068006880061FD40A23002273
:103A200002212046FFF7D4FA18B1606D40F0100073
:103A300060652068416821F0020141600A2301228B
:103A400080212046FFF7C4FA18B1606D40F01000E5
:103A500060650020E086012084F85100A06818B954
:103A60002068C16880680090606D0028204602D000
:103A7000FFF7F0FD38BDFFF7EEFD38BD704710B51C
:103A8000406AFFF7FBFF10BD70B5044690F8510087
:103A9000012857D101B3FAB194F85000012851D050
:103AA000012084F85000122084F85100002565653B
:103AB0002163A286E286E564A56405E05B36000822
:103AC0003338000801390008A563A587E587A06899
:103AD000B0F5004F02D006E0012070BD20680168FB
:103AE00041F480410160A06AB0F5005F09D120680F
:103AF000016821F4005101602068016841F400511F
:103B00000160216CFA48C862216CFA488862216C15
:103B1000F94808632268E38E0C32216B206CFDF7B4
:103B200021FF2068416841F00201416084F8505053
:103B300020680168490603D4016841F04001016032
:103B4000002070BD022070BD38B50025ADF80050D2
:103B5000446A0068006880065FD42068416821F0EC
:103B6000010141602068416821F002014160A06AC2
:103B7000B0F5005F37D10A23002201212046FFF76C
:103B800027FA18B1606D40F0100060652068C068C9
:103B9000ADF80000BDF8000001220A2311462046BE
:103BA000FFF716FA18B1606D40F0100060652068EC
:103BB0008068C043C00616D4204600F0BBFA012836
:103BC0000DD1606D40F0020060652068016821F44D
:103BD000005101602068016841F4005101602168D2
:103BE0006FF0100088606068B0F5827F0BD1A0682C
:103BF000B0F5004F02D0B0F5806F04D120680168A5
:103C000021F040010160E587012084F85100606DDA
:103C100018B12046FFF71EFD38BD2046FFF78DFD89
:103C200038BD704710B5406AFFF7FBFF10BD38B5CF
:103C30000025ADF80050446A00680068800651D441
:103C4000A06AB0F5005F22D101220A231146204666
:103C5000FFF7BEF950B90A23002201212046FFF7E1
:103C6000B7F918B1606D40F0100060652068C16858
:103C7000ADF80010BDF800108168C943C90606D42C
:103C8000616D41F0020161656FF0100181600A23EE
:103C9000002202212046FFF79BF918B1606D40F029
:103CA000100060652068416821F0020141600A232C
:103CB000012280212046FFF78BF918B1606D40F09A
:103CC000100060652068416821F001014160E586CF
:103CD000E587012084F85100606D18B12046FFF798
:103CE000B9FC38BD2046FFF7B7FC38BD704710B5AA
:103CF000406AFFF7FBFF10BD70B5044690F8510015
:103D000001280AD06068B0F5827F71D1A0680028D0
:103D10006ED194F8510022286AD1F1B1EAB1E3B131
:103D200094F85000012863D0012084F8500094F8E2
:103D30005100222802D0322084F851000025656508
:103D40002163A386E386A263A387E387A564E56472
:103D5000A06AB0F5005F02D00BE0012070BD2068C2
:103D6000016821F4005101602068016841F40051AC
:103D7000016094F85100222832D0616C5F48C8621B
:103D80005F48616C5C4E8862606C06632168E38FFB
:103D90000C31A26B606CFDF7E5FD2068416841F0D5
:103DA0000101416094F851003228206C1ED0056357
:103DB0002268E38E0C32216B206CFDF7D3FD206866
:103DC0000168490603D4016841F0400101602068A0
:103DD000416841F00201416084F85050002070BDFC
:103DE000616C4848C8624848CBE701E00663DFE7FA
:103DF000022070BD70B5044690F8510001285FD1D3
:103E0000D1B1CAB194F85000012859D0012084F8EA
:103E10005000222084F8510000256565A163A28727
:103E2000E287A564E5642563A586E586A068B0F50C
:103E3000004F03D040B10BE0012070BD2068016845
:103E400021F48041016003E06068B0F5827F04D016
:103E5000A06AB0F5005F08D011E084F85050204609
:103E6000BDE8704013460A4646E72068016821F421
:103E7000005101602068016841F400510160616CEB
:103E80002048C862616C20488862616C1A480863E7
:103E90002168E38F0C31A26B606CFDF763FD206835
:103EA000416841F00101416084F850502068016888
:103EB000490603D4016841F040010160002070BD53
:103EC000022070BD90F8501001291FD0012180F808
:103ED000501001684A6822F002024A6001684A688C
:103EE00022F001024A60002180F850100846704715
:103EF0007F3A0008113A0008F3390008EF3C000847
:103F00002F3C0008253C0008493B00080220EEE752
:103F100090F85010012911D0012180F8501001684B
:103F20004A6842F002024A6001684A6842F00102AF
:103F30004A60002180F850100846D8E70220D6E7F2
:103F400010B50446006C08B1FDF738FD606C08B18F
:103F5000FDF734FD2068416821F0020141602068CE
:103F6000416821F001014160012084F851000020E6
:103F700010BD08B501684A68D243520609D48A6860
:103F8000D243D20705D18A68D243520601D5816C4B
:103F900008E04A68D243120608D48A68D2439207DE
:103FA00004D4C16C01B05DF804EB08474A68D24301
:103FB000920635D48A68D243D20606D4426D42F0C6
:103FC000020242656FF010028A6001688A68D2437B
:103FD000920609D4426D42F0010242658A680A687D
:103FE00022F040020A60009201688A68D2435206B9
:103FF0000AD490F85120122A06D0426D42F00402F1
:104000004265CA688A680092426D002A08D04A68F0
:1040100022F0E0024A60012180F85110FFF71AFBFC
:1040200008BD90F8510062E7406D60E738B504467E
:104030000A2300220221FEF7CBFF18B1606D40F089
:10404000100060652068416821F0800141602068AF
:104050004168C94349061CD5416821F020014160EF
:104060000A23012280212046FEF7B2FF18B1606DBD
:1040700040F010006065A06818B92068C1688068C9
:104080000090616D012029B184F851002046FFF7AE
:10409000E1FA38BD94F8511084F8510032292046D5
:1040A00002D0FFF7D8FA38BDFFF7D6FA38BD0000C6
:1040B00010B5040003D094F8510010B104E00120C1
:1040C00010BD204608F088FB022084F851002068CB
:1040D000016821F040010160D4E901010843D4E9FD
:1040E00003121143084361690843218B01F40071F5
:1040F0000843E1690843216A0843A16A084321682B
:104100000860A069042101EA1040616A084321683F
:1041100048602168E06A08612068C16921F4006193
:10412000C1610549002008706065012084F85100D4
:10413000002010BD0120704704000020F0B5026887
:10414000F84CF94DF94E4FF08047A04205D0B842E7
:1041500003D0A84201D0B04203D122F070034A68D4
:104160001A43A04205D0B84203D0A84201D0B042C1
:1041700003D122F44073CA681A4302608A68C2629B
:104180000A688262A04201D109690163012141618B
:10419000F0BD704710B5040003D094F8390010B199
:1041A00007E0012010BD002084F83800204608F008
:1041B00058FB022084F83900211D2068FFF7BEFF5C
:1041C000012084F83900002010BD704710B5044666
:1041D000022084F839002068016A41F2111211426C
:1041E00007D1016A9210114203D1016821F0010147
:1041F0000160204608F05DFB002084F8390084F857
:10420000380010BD022180F8391001680A6842F0B8
:1042100001020A60012180F8391000207047022154
:1042200080F8391001680A6A41F211131A4207D165
:104230000A6A9B101A4203D10A6822F001020A603E
:10424000012180F83910002070470168CA6842F0E7
:104250000102CA600068016841F0010101600020AC
:1042600070470168CA6822F00102CA600068016AEA
:1042700041F21112114207D1016A9210114203D189
:10428000016821F00101016000207047704710B5FE
:10429000406A012180F83910FFF7F8FF10BD704720
:1042A00010B5406A012180F83910FFF7F8FF10BD02
:1042B00070B5044690F83900022805D094F839000A
:1042C000012805D109B902B170BD022084F8390076
:1042D000E36997489862AFF24900E369186325687B
:1042E000134605F12C02E069FDF73CFB2068C1682C
:1042F00041F48071C1602068016841F001010160F2
:10430000002070BD0168CA6822F48072CA6001682A
:104310000A6A41F211131A4207D10A6A9B101A4223
:1043200003D10A6822F001020A60012180F83910E5
:1043300000207047704710B5040003D094F839008E
:1043400010B107E0012010BD002084F8380020469D
:10435000FFF7F0FF022084F83900211D2068FFF7E5
:10436000EDFE012084F83900002010BD704710B523
:104370000446022084F839002068016A41F21112D3
:10438000114207D1016A9210114203D1016821F054
:10439000010101602046FFF7E9FF002084F83900A1
:1043A00084F8380010BD10B50123046A8B409C438B
:1043B0000462036A8A401343036210BD10B50446C9
:1043C00000680122FFF7EFFF56492068884203D1B9
:1043D000416C41F4004141642068016841F00101F1
:1043E0000160002010BD10B5044600680022FFF7F0
:1043F000DAFF4C4841F2111221689310814209D131
:10440000086A104206D1086A184203D1486C20F4A9
:10441000004048642068016A114206D1016A1942CD
:1044200003D1016821F001010160002010BD10B529
:104430000268044631B1042908D008291DD00C298E
:1044400008D11EE0D06840F0020002E0D06840F0E1
:104450000400D06001222068FFF7A5FF31492068E1
:10446000884203D1416C41F40041416420680168F5
:1044700041F001010160002010BDD06840F008004B
:10448000E7E7D06840F01000E3E710B502680446A3
:1044900031B1042908D008292CD00C2908D12DE0ED
:1044A000D06820F0020002E0D06820F00400D06064
:1044B00000222068FFF777FF1A4841F211122168A5
:1044C0009310814209D1086A104206D1086A184245
:1044D00003D1486C20F4004048642068016A11420E
:1044E00006D1016A194203D1016821F0010101607E
:1044F000002010BDD06820F00800D8E7D06820F078
:104500001000D4E7704710B5446A012184F83910CF
:10451000226A824201D1217616E0616A814209D184
:10452000022010E0002C0140000400400008004080
:10453000A1420008A16A814201D1042003E0E16A9E
:10454000814201D1082020762046FFF7DBFF0020C2
:10455000207610BD70B5044690F8390016460D4619
:10456000022805D094F83900012805D10EB903B10D
:1045700070BD022084F83900AFF27500AFF2F1216E
:1045800035B1042D13D0082D34D00C2D1ED140E0B0
:10459000226A9062206A0163226831463432206ABE
:1045A000FDF7E0F92068C16841F400710DE0626A2E
:1045B0009062606A0163226831463832606AFDF7B2
:1045C000D1F92068C16841F48061C16001222946A7
:1045D0002068FFF7E8FEF9492068884203D1416C62
:1045E00041F4004141642068016841F0010101602B
:1045F000002070BDA26A9062A06A01632268314601
:104600003C32A06AFDF7AEF92068C16841F4006150
:10461000DBE7E26A9062E06A016322683146403279
:10462000E06AFDF79FF92068C16841F48051CCE74A
:1046300010B50268044631B1042908D008292FD0EA
:104640000C2908D130E0D06820F4007002E0D06876
:1046500020F48060D06000222068FFF7A4FED749D4
:1046600041F2111220689310884209D1016A114267
:1046700006D1016A194203D1416C21F40041416421
:104680002068016A114206D1016A194203D101680A
:1046900021F001010160012084F83900002010BDE3
:1046A000D06820F40060D5E7D06820F48050D1E7CE
:1046B000704710B5040003D094F8390010B107E03A
:1046C000012010BD002084F838002046FFF7F0FFDD
:1046D000022084F83900211D2068FFF72FFD0120FA
:1046E00084F83900002010BD704710B50446022040
:1046F00084F839002068016A41F21112114207D191
:10470000016A9210114203D1016821F00101016098
:104710002046FFF7E9FF002084F8390084F83800CC
:1047200010BD10B5044600680122FFF73CFEA34906
:104730002068884203D1416C41F400414164206803
:10474000016841F001010160002010BD10B5044670
:1047500000680022FFF727FE984841F211122168F5
:104760009310814209D1086A104206D1086A1842A2
:1047700003D1486C20F4004048642068016A11426B
:1047800006D1016A194203D1016821F001010160DB
:10479000012084F83900002010BD10B502680446DD
:1047A00031B1042908D008291DD00C2908D11EE0F8
:1047B000D06840F0020002E0D06840F00400D06011
:1047C00001222068FFF7EFFD7C492068884203D171
:1047D000416C41F4004141642068016841F00101ED
:1047E0000160002010BDD06840F00800E7E7D06805
:1047F00040F01000E3E710B50268044631B1042927
:1048000008D008292CD00C2908D12DE0D06820F040
:10481000020002E0D06820F00400D060002220688E
:10482000FFF7C1FD654841F21112216893108142E2
:1048300009D1086A104206D1086A184203D1486CAF
:1048400020F4004048642068016A114206D1016AE0
:10485000194203D1016821F001010160002010BD5F
:10486000D06820F00800D8E7D06820F01000D4E726
:1048700070B5044690F8390016460D46022805D05A
:1048800094F83900012805D10EB903B170BD02209A
:1048900084F83900AFF29130AFF20D6135B1042DDB
:1048A00013D0082D34D00C2D1ED140E0226A906226
:1048B000206A0163226831463432206AFDF752F8DB
:1048C0002068C16841F400710DE0626A9062606A1C
:1048D0000163226831463832606AFDF743F8206888
:1048E000C16841F48061C160012229462068FFF758
:1048F0005AFD32492068884203D1416C41F400419D
:1049000041642068016841F001010160002070BD30
:10491000A26A9062A06A0163226831463C32A06AB2
:10492000FDF720F82068C16841F40061DBE7E26A26
:104930009062E06A0163226831464032E06AFDF726
:1049400011F82068C16841F48051CCE710B50268C5
:10495000044631B1042908D0082931D00C2908D1E6
:1049600032E0D06820F4007002E0D06820F480606B
:10497000D06000222068FFF716FD104941F21112A5
:1049800020689310884209D1016A114206D1016A58
:10499000194203D1416C21F4004141642068016A4D
:1049A000114206D1016A194203D1016821F00101C7
:1049B0000160012084F83900002010BD002C014066
:1049C000D06820F40060D3E7D06820F48050CFE7AF
:1049D000704710B5040003D094F8390010B107E017
:1049E0000120EAE7002084F838002046FFF7F0FFB6
:1049F000022084F83900211D2068FFF79FFB012069
:104A000084F839000020D8E7704710B5044602202A
:104A100084F839002068016A41F21112114207D16D
:104A2000016A9210114203D1016821F00101016075
:104A30002046FFF7E9FF002084F8390084F83800A9
:104A4000BBE710B5044600680122FFF7ACFC206804
:104A5000016841F0010101600020AEE710B5044695
:104A600000680022FFF79FFC2068016A41F21112E2
:104A7000114207D1016A9210114203D1016821F05D
:104A800001010160002098E710B50268044631B1C9
:104A9000042908D0082915D00C2908D116E0D068BF
:104AA00040F0020002E0D06840F00400D060012233
:104AB0002068FFF778FC2068016841F0010101607F
:104AC00000207AE7D06840F00800EFE7D06840F0B7
:104AD0001000EBE710B50268044631B1042908D094
:104AE00008291ED00C2908D11FE0D06820F0020050
:104AF00002E0D06820F00400D06000222068FFF7B8
:104B000052FC2068016A41F21112114207D1016A78
:104B10009210114203D1016821F0010101600020CF
:104B20004BE7D06820F00800E6E7D06820F01000DE
:104B3000E2E7704710B5446A012184F83910226A0F
:104B4000824201D121760EE0616A814201D10220C8
:104B500008E0A16A814201D1042003E0E16A8142B8
:104B600001D1082020762046FFF7E3FF00202076C1
:104B700023E770B5044690F839000D46022805D0A9
:104B800094F83900012805D10AB903B170BD02209B
:104B900084F83900AFF26300AFF60D1135B1042D82
:104BA00012D0082D2AD00C2D1CD135E0266AB06217
:104BB000206A01632168206A3431FCF7D3FE206843
:104BC000C16841F400710CE0666AB062606A01631A
:104BD0002168606A3831FCF7C5FE2068C16841F47D
:104BE0008061C160012229462068FFF7DCFB206854
:104BF000016841F001010160002070BDA66AB06249
:104C0000A06A01632168A06A3C31FCF7ABFE206812
:104C1000C16841F40061E4E7E66AB062E06A0163FA
:104C20002168E06A4031FCF79DFE2068C16841F4CC
:104C30008051D6E710B50268044631B1042908D086
:104C4000082921D00C2908D122E0D06820F4007076
:104C500002E0D06820F48060D06000222068FFF776
:104C6000A2FB2068016A41F21112114207D1016AC8
:104C70009210114203D1016821F00101016001206D
:104C800084F83900002098E6D06820F40060E3E75B
:104C9000D06820F48050DFE7704770B50D460400FF
:104CA00003D094F8390010B107E0012070BD002056
:104CB00084F838002046FFF7EFFF022084F839001F
:104CC000211D2068FFF73AFA2068016821F00801E9
:104CD00001602068016829430160012084F83900DF
:104CE000002070BD704710B50446022084F83900DA
:104CF0002068016A41F21112114207D1016A921033
:104D0000114203D1016821F0010101602046FFF743
:104D1000E9FF002084F8390084F838004DE610B52A
:104D20000446006801220021FFF73DFB0122042117
:104D30002068FFF738FBFE492068884203D1416CA8
:104D400041F400414164002037E610B504460022DA
:104D500000681146FFF727FB002204212068FFF7B7
:104D600022FBF34841F2111221689310814209D1CC
:104D7000086A104206D1086A184203D1486C20F430
:104D8000004048642068016A114206D1016A194254
:104D900003D1016821F00101016000200DE610B58A
:104DA00004460068C16841F00201C1602068C16822
:104DB00041F00401C160012200212068FFF7F3FAED
:104DC000012204212068FFF7EEFAD94920688842C1
:104DD00003D1416C41F4004141640020EDE510B580
:104DE00004460068C16821F00201C1602068C16802
:104DF00021F00401C160002211462068FFF7D3FAB8
:104E0000002204212068FFF7CEFAC94A41F21111AD
:104E100020688B10904209D1026A0A4206D1026AC8
:104E20001A4203D1426C22F4004242642068026AB2
:104E30000A4206D1016A194203D1016821F0010139
:104E400001600020B9E570472DE9F0410D460400EE
:104E500003D094F8390018B108E00120BDE8F081D2
:104E6000002084F838002046FFF7EDFF022084F888
:104E700039002068816821F007018160211D2068C8
:104E8000FFF75CF9206881688269066A2B68AF6960
:104E90000B4340F203318A4342EA0722A968EF69D3
:104EA00011434FF6FC429143EA6841EA07210A4365
:104EB00029692F6A090141EA0737696817436D6953
:104EC00026F0AA0242EA0512114383602068876136
:104ED00020680162012084F839000020BEE7704795
:104EE00010B50446022084F839002068016A41F2B6
:104EF0001112114207D1016A9210114203D10168C7
:104F000021F0010101602046FFF7E9FF002084F84D
:104F1000390084F8380050E510B50446006889B1BE
:104F2000042904D001220021FFF73DFA2068012264
:104F30000421FFF738FA2068016841F0010101609F
:104F400000203AE501220021F3E710B5044600688D
:104F5000D1B1042904D000221146FFF724FA2068B9
:104F600000220421FFF71FFA2068016A41F21112A2
:104F7000114207D1016A9210114203D1016821F058
:104F800001010160002018E500221146EAE710B592
:104F90000446006889B104294FF0010216D00021AF
:104FA000FFF701FA012204212068FFF7FCF92068CD
:104FB000C16841F00201C1600BE001220021FFF74E
:104FC000F2F92068C16841F0020106E00421FFF710
:104FD000EAF92068C16841F00401C16020680168F5
:104FE00041F0010101600020E7E410B504460068CB
:104FF00041B304294FF000022DD00021FFF7D3F96F
:10500000002204212068FFF7CEF92068C16821F052
:105010000201C1602068C16821F00401C1602068FC
:10502000016A41F21112114207D1016A9210114234
:1050300003D1016821F001010160012084F83900E9
:105040000020BAE400221146FFF7ADF92068C168DC
:1050500021F00201E2E70421FFF7A5F9DAE72DE9E3
:10506000F041044690F83900069D9846022809D080
:1050700094F83900012809D112B1B8F1000F02D11A
:105080000DB10120EAE6022084F83900AFF25B5648
:10509000AFF6056721B104291AD0182965D132E08D
:1050A000206A2B468662206A07632168206A3431B1
:1050B000FCF758FC2068C16841F40071C1602068A9
:1050C000016841F00101016001220021206817E020
:1050D000606A2B4642468662606A07632168606A9E
:1050E0003831FCF73FFC2068C16841F48061C16041
:1050F0002068016841F0010101600122042120685B
:10510000FFF751F931E0206A2B468662206A076377
:105110002168206A3431FCF725FC606A2B46424640
:105120008662606A07632168606A383102E00000C5
:10513000002C0140FCF716FC2068016841F00101D9
:105140000160012200212068FFF72DF901220421CE
:105150002068FFF728F92068C16841F40071C16038
:105160002068C16841F48061C160002076E610B516
:105170000446006841B304294FF000022DD00021FD
:10518000FFF711F9002204212068FFF70CF92068CD
:10519000C16821F40071C1602068C16821F4806198
:1051A000C1602068016A41F21112114207D1016AFF
:1051B0009210114203D1016821F001010160012028
:1051C00084F8390000200CE400221146FFF7EBF8C8
:1051D0002068C16821F40071E2E70421FFF7E3F8D9
:1051E000DAE77047704770B50446006801694FF010
:1051F0000005C943890715D4C168C943890711D47B
:10520000E91E016101202076206880698007204620
:1052100002D0FFF78EFC04E0FFF7E4FF2046FFF723
:1052200071F9257620680169C943490717D4C16817
:10523000C943490713D46FF00401016102202076AD
:105240002068806910F4407F204602D0FFF771FC8F
:1052500004E0FFF7C7FF2046FFF754F925762068E2
:105260000169C943090716D4C168C943090712D4A3
:105270006FF008010161042020762068C069800772
:10528000204602D0FFF755FC04E0FFF7ABFF2046B5
:10529000FFF738F9257620680169C943C90617D494
:1052A000C168C943C90613D46FF010010161082019
:1052B00020762068C06910F4407F204602D0FFF7B6
:1052C00038FC04E0FFF78EFF2046FFF71BF9257638
:1052D00020680169C943C90708D1C168C943C90722
:1052E00004D1891E01612046FEF7D9FF20680169BB
:1052F000C943090609D4C168C943090605D46FF03A
:1053000080010161204601F0F3FA20680169C94378
:10531000490609D4C168C943490605D46FF0400164
:1053200001612046FFF75DFF20680169C9438906D6
:105330000BD4C168C943890607D46FF0200101610D
:105340002046BDE8704001F043BA70BD30B5026A36
:1053500022F480520262036A4268C4690D6824F430
:10536000E64444EA05248D6823F4005343EA0533F8
:10537000FE4DA84204D14D6922F4804242EA8512D2
:105380004260C46149680164036230BD30B5026A9D
:1053900022F480720262036A4268C46923F40073D3
:1053A00024F073050C682C438D6843EA0523EF4D08
:1053B000A84206D1CD6823F4006343EA052323F411
:1053C000806307D14D6922F4405242EA05128D698B
:1053D00042EA05124260C4614968C163036230BD9C
:1053E00030B5026A22F010020262026A43688469E0
:1053F0000D6824F4E64444EA05248D6822F0200276
:1054000042EA0512D94DA84206D1CD6822F08002A9
:1054100042EA051222F0400207D14D6923F44063AD
:1054200043EA85038D6943EA8503436084614968E3
:105430008163026230BD30B5026A22F0010202626D
:10544000036A4268846924F073050C682C4323F0D6
:1054500002058B682B43C54DA84206D123F00805F1
:10546000CB6843EA050323F0040307D14D6922F416
:10547000407245EA02058A6942EA05024260846197
:1054800049684163036230BD70B5044690F8380046
:1054900001280DD0012584F83850022084F8390005
:1054A00042B1042A0AD0082A0CD00C2A11D10DE0EE
:1054B000022070BD2068FFF7BEFF0AE02068FFF7FA
:1054C0008FFF06E02068FFF761FF02E02068FFF72A
:1054D0003DFF84F83950002084F8380070BD30B5A5
:1054E000046A24F0100404628569046A25F4407596
:1054F00045EA022222F470454FF6FF7202EA0332B7
:1055000024F0A0032A43A02404EA01111943826174
:10551000016230BD70B5046A24F00104046284693C
:10552000056A924EB04208D0B0F1804F05D0904E3F
:10553000B04202D08F4EB04203D124F00304144392
:1055400001E044F001041A0724F0F00444EA126276
:1055500025F00A0301F00A0119438261016270BD5E
:105560002DE9F041044690F838000D4601283BD063
:10557000012684F83860022084F839009AB3042A9E
:1055800044D02068082A53D0D5E90027E968036A87
:1055900023F480530362D0F81CC0036A2CF4407CCF
:1055A0004CEA07274FF6FF7C27F470470CEA0131DD
:1055B00039434FF4204723F4204307EA02321A43C9
:1055C000C16102622068C16921F44061C161206843
:1055D000C169AA6841EA0221C16184F839600020EA
:1055E00084F838003AE401E0022037E4D5E90012FB
:1055F000EB682068FFF78EFF2068816921F00C01BD
:10560000816120688169AA6811430FE0D5E9001221
:10561000EB682068FFF763FF2068816921F440612F
:10562000816120688169AA6841EA02218161D4E729
:10563000D5E9002C2F7B016A21F480710162C169D8
:10564000036A21F0030141EA0C0121F0F00C390753
:105650004FF420674CEA116123F4206307EA022229
:105660001A43C16102622068C16921F00C01C16165
:105670002068C169AA681143AEE770B5044690F886
:1056800038000D4601280DD0012684F8386002202C
:1056900084F8390042B1042A18D0082A2AD00C2AEA
:1056A0004DD139E0022070BD2068FFF7C4FE2068AC
:1056B000816941F0080181612068816921F004015C
:1056C0008161206881692A69114311E02068FFF730
:1056D00087FE2068816941F40061816120688169E9
:1056E00021F480618161206881692A6941EA02218F
:1056F000816124E02068FFF749FE2068C16941F01C
:105700000801C1612068C16921F00401C1612068FC
:10571000C1692A69114311E02068FFF717FE20686C
:10572000C16941F40061C1612068C16921F48061EF
:10573000C1612068C1692A6941EA0221C16184F816
:105740003960002084F8380070BDF0B51E4687B07F
:105750000D460446B2426BD094F8380001281DD0A3
:10576000012784F83870022006E00000002C014078
:10577000000400400008004084F8390028680090C8
:1057800068680190A8680290E8680390286905900D
:10579000686906902AB1042A0CD107E0022007B0FC
:1057A000F0BD69462068FFF746FE03E069462068C1
:1057B000FFF716FE16B1042E34D114E01835206818
:1057C00095E80E00FFF7A6FE2068816921F00C0124
:1057D00081612068816821F07001816020688168A2
:1057E00041F0500113E01835206895E80E00FFF7EE
:1057F00076FE2068816921F44061816120688168BA
:1058000021F0700181602068816841F06001816051
:105810002068816821F0070181602068816841F07B
:105820000601816084F83970002084F83800B6E7FA
:105830000120B4E710B5406A012180F83910FFF764
:10584000D0FCC0E42DE9F041044690F83900069DF3
:105850009C4616468846022807D094F8390001284D
:1058600007D1BCF1000F01D105B10BE4022084F88F
:1058700039000127FA48FB4907EB1523B6F5006FFD
:1058800039D009DCB6F5807F10D0B6F5007F15D091
:10589000B6F5806F1CD127E0B6F5805F32D0B6F543
:1058A000005F36D0B6F5804F12D13AE0E269EE499A
:1058B0009162E16908632268E06905E0226A916209
:1058C000216A08632268206A61464C32FCF74AF874
:1058D000216848EA050088642068C1683143C160D6
:1058E00084F83970002041E4626A9162616A086359
:1058F0002268606AE8E7A26A9162A16A0863226886
:10590000A06AE1E7E26A9162E16A08632268E06AFC
:10591000DAE7226BD5499162216B08632268206B1C
:10592000D2E7626BD2499162616B08632268606B57
:10593000CAE770B50D460446B1F5006F21D009DC09
:10594000B5F5807F10D0B5F5007F0FD0B5F5806F2D
:105950000FD114E0B5F5805F15D0B5F5005F14D018
:10596000B5F5804F05D112E0E06900E0206AFCF750
:1059700025F82068C168A943C160002070BD606A35
:10598000F5E7A06AF3E7E06AF1E7206BEFE7606B09
:10599000EDE72DE9F041044690F83900069D9C465C
:1059A00016468846022807D094F83900012807D106
:1059B000BCF1000F01D105B114E6022084F83900D2
:1059C000A748012707EB1523AFF69761B6F5006FDF
:1059D00039D009DCB6F5807F10D0B6F5007F15D040
:1059E000B6F5806F1CD127E0B6F5805F32D0B6F5F2
:1059F000005F36D0B6F5804F12D13AE0E2699A499D
:105A00009162E16908632168E06905E0226A9162B8
:105A1000216A08632168206A62464C31FBF7A2FFC5
:105A2000216848EA050088642068C1683143C16084
:105A300084F839700020D5E5626A9162616A086372
:105A40002168606AE8E7A26A9162A16A0863216836
:105A5000A06AE1E7E26A9162E16A08632168E06AAC
:105A6000DAE7226B81499162216B08632168206B20
:105A7000D2E7626B7E499162616B08632168606B5B
:105A8000CAE770B50D460446B1F5006F21D009DCB8
:105A9000B5F5807F10D0B5F5007F0FD0B5F5806FDC
:105AA0000FD114E0B5F5805F15D0B5F5005F14D0C7
:105AB000B5F5804F05D112E0E06900E0206AFBF700
:105AC0007DFF2068C168A943C160002070BD606A85
:105AD000F5E7A06AF3E7E06AF1E7206BEFE7606BB8
